:020000040800F2
:100000007006002029020008AB0E00080D0E000843
:10001000A90E00082F030008B50F0008000000001B
:100020000000000000000000000000002D0F00088C
:100030003103000800000000AD0E00082F0F00087B
:10004000430200084302000843020008430200087C
:10005000430200084302000843020008430200086C
:10006000430200084302000843020008430200085C
:10007000430200084302000843020008430200084C
:10008000430200084302000843020008430200083C
:10009000430200084302000843020008430200082C
:1000A000430200084302000843020008430200081C
:1000B000430200084302000843020008430200080C
:1000C00043020008430200084302000843020008FC
:1000D00043020008430200084302000843020008EC
:1000E00043020008430200084302000843020008DC
:1000F00043020008430200084302000843020008CC
:1001000043020008430200084302000843020008BB
:1001100043020008430200084302000843020008AB
:10012000430200084302000843020008430200089B
:10013000430200084302000843020008430200088B
:10014000430200084302000843020008430200087B
:10015000430200084302000843020008430200086B
:10016000430200084302000843020008430200085B
:1001700043020008430200080000000000000000E5
:10018000430200084302000800F002F800F03CF8C7
:100190000AA090E8000C82448344AAF10107DA45E2
:1001A00001D100F031F8AFF2090EBAE80F0013F0F8
:1001B000010F18BFFB1A43F001031847740E00002B
:1001C000940E0000103A24BF78C878C1FAD85207BC
:1001D00024BF30C830C144BF04680C6070470000C1
:1001E0000023002400250026103A28BF78C1FBD840
:1001F000520728BF30C148BF0B6070471FB500F0E1
:10020000F1FE1FBD10B510BD00F058F81146FFF704
:10021000F5FF00F0E0FE00F076F803B4FFF7F2FF20
:1002200003BC00F07DF800000948804709480047FA
:10023000FEE7FEE7FEE7FEE7FEE7FEE7FEE7FEE796
:10024000FEE7FEE704480549054A064B70470000F3
:10025000A50F00088901000870000020700600202A
:1002600070020020700200204FF0000200B513461B
:1002700094469646203922BFA0E80C50A0E80C50C6
:10028000B1F12001BFF4F7AF090728BFA0E80C5077
:1002900048BF0CC05DF804EB890028BF40F8042B70
:1002A00008BF704748BF20F8022B11F0804F18BFDD
:1002B00000F8012B7047704770477047754600F093
:1002C0002BF8AE4605006946534620F007008546E8
:1002D00018B020B5FFF7B6FFBDE820404FF000068C
:1002E0004FF000074FF000084FF0000B21F007011E
:1002F000AC46ACE8C009ACE8C009ACE8C009ACE861
:10030000C0098D46704710B50446AFF30080204603
:10031000BDE81040FFF781BF004870471000002083
:1003200001491820ABBEFEE7260002007047FEE739
:10033000704700002DE9F04FDFF8EC910022012713
:10034000A9F1040B85B003254FF00F0C09F1040A45
:10035000ABF1040EE0E000BF07FA02F416EA040372
:100360007ED00E7906F00306012E01D0022E1FD199
:1003700086680096560005FA06F80496009E26EA5E
:1003800008060096D1F80C80049E08FA06F8009E34
:1003900048EA0608C0F80880466891F80480A64339
:1003A000C8F3001808FA02F848EA0608C0F8048002
:1003B000D1F804806FEA0806B6070AD1C66AA643D8
:1003C000C8F3C00494403443C4620C79E443A407E6
:1003D0000AD0C4684FEA420805FA08F6B4438E68AA
:1003E00006FA08F62643C6600C7904F00304022CD2
:1003F00011D1D40800EB84060296D6F82080540769
:10040000E60E0CFA06F428EA04080C69B440029ED1
:1004100044EA0804346204685600029605FA06F6B7
:10042000B4430E7906F00308029E08FA06F848EA7B
:100430000408C0F800804C6814F4403F6BD03B4C7B
:10044000266E46F001062666246E22F0030604F0AE
:1004500001040094364C34440294A468960700E0EA
:1004600059E04FEA16780CFA08F6B443B0F1904F11
:1004700004D0304EB04203D101261BE0002619E023
:100480002D4EB04201D1022614E02C4EB04201D1D3
:1004900003260FE02A4EB04201D104260AE0294E7D
:1004A000B04201D1052605E0274EB04201D1062613
:1004B00000E0072606FA08F62643029CA660D9F853
:1004C00000404E46D1F804809C435FEAC82800D51E
:1004D0001C433460DAF800405646D1F804809C434F
:1004E0005FEA882800D51C433460DBF800405E4694
:1004F000D1F804809C435FEA883800D51C433460FF
:10050000DEF800407646D1F804809C435FEAC838A4
:1005100000D51C433460521C0B681E46D3407FF448
:100520001BAF05B000F012B80804014000100240F3
:10053000000001400004004800080048000C00488A
:1005400000100048001400480018004830BCBDE806
:10055000C08F0AB18161704781627047014880682D
:1005600070470000000000200248816802781144B2
:10057000816070470000002010B50024032000F0C7
:1005800063F8002000F008F808B1012401E000F051
:1005900025F8204610BD000070B50E4E054600241B
:1005A000307898B14FF47A71B1FBF0F00A490968DC
:1005B000B1FBF0F000F016FC40B9102D06D200227D
:1005C0002946501E00F020F8756000E00124204606
:1005D00070BD0000000000200C000020094808B594
:1005E000016E41F001010166016E01F0010100910F
:1005F000816D41F080518165806D00F080500090E8
:1006000008BD000000100240F0B40E4B1B680C4601
:10061000C3F30223C3F10705042D00D90425191DD6
:10062000072901D2002300E0DB1E012606FA05F1AE
:10063000491E214099409E40761E16403143F0BC31
:1006400000F0B9BC0CED00E0064900F007020868B4
:100650004FF6FF03184040EA0220034A10430860A7
:10066000704700000CED00E00000FA051649B0F5F7
:10067000007F0868C0F3412009D0022805D008682F
:1006800020F4C06040F480600860002070470128BA
:10069000FBD0086820F4C06040F4007008600B488C
:1006A0003222006850430A4AB0FBF2F0401C00E0DE
:1006B000401E4A69520501D50028F9D14869400514
:1006C000E3D5032070470000007000400C000020BC
:1006D00040420F000248006800F4C060704700000C
:1006E000007000402DE9F0470F4605006BD0494EE1
:1006F000306800F00700B84209D2306820F00700E7
:1007000038433060306800F00700B8425BD1287889
:10071000414C80070AD5A868A16801F0F001884221
:1007200004D9A16821F0F0010143A1602878C00735
:100730002CD06868032811D0022812D0216898B103
:10074000490500293FDAA16821F003010143A160B6
:10075000FFF704FF804641F2883910E021688901E3
:10076000EFE721688903ECE78907EAE7FFF7F6FE80
:10077000A0EB0801494502D90320BDE8F087A06835
:10078000696800F00C00B0EB810FEFD1287880078A
:100790000AD5A868A16801F0F001884204D2A168D6
:1007A00021F0F0010143A160306800F00700B84279
:1007B0000BD9306820F0070038433060306800F013
:1007C0000700B84201D00120D7E72878400705D5B7
:1007D000A068E96820F4E0600843A060287800077A
:1007E00006D5A068296920F4605040EAC100A060E5
:1007F00000F01AF8A168094AC1F30311515C01F035
:100800001F01C8400649086006480068BDE8F04777
:10081000FFF7C2BE0020024000100240F00F0008A7
:100820000C0000200400002070B525490023184664
:100830008A68CC6812F00C0204F00306214C4FEADF
:10084000640509D00C2A05D0042A32D0082A00D128
:10085000284670BD012E10D10B681B0704D4D1F8B7
:100860009430C3F3032302E00B68C3F30313164E63
:1008700056F82330DAB10C2AEBD1C86800F0030037
:10088000022818D0032818D01846CA68CB68C2F3CB
:100890000212C3F306234343521CB3FBF2F2C868AF
:1008A000C0F34160401C4000B2FBF0F070BD184640
:1008B00070BD204670BD2046E7E72846E5E700000A
:1008C000001002400024F400001000082DE9F84355
:1008D00004006FD0FD4DA86800F00C06E86800F039
:1008E00003072078C00664D576B10C2E01D1012F04
:1008F0000AD0A069002828687AD040F0010028605A
:10090000FFF72CFE80465DE02868800702D5A069CD
:100910000028DED0216A2868000703D5286800F087
:10092000F00004E0D5F89400F02202EA10108142B1
:1009300016D9084600F0BCFA00283BD1286840F0E0
:10094000080028602868216A20F0F0000843286029
:100950006868E16920F47F4040EA0120686016E0A1
:10096000286840F0080028602868216A20F0F0001C
:10097000084328606868E16920F47F4040EA01206C
:10098000686026B9206A00F093FA0028D5D1FFF7F5
:100990004BFFA968CE4AC1F30311515C01F01F015E
:1009A000C840CC490860CC480068FFF7F5FD002836
:1009B0007ED12EE0CAE000BFFFF7D0FDA0EB08001B
:1009C000022876D828688007F6D5286840F0080005
:1009D00028602868216A20F0F000084328606868D1
:1009E000E16920F47F4040EA0120686011E0FFE700
:1009F00020F001002860FFF7B1FD804606E000BF4F
:100A0000FFF7ACFDA0EB08000228DAD828688007C1
:100A1000F6D42078C00740D0082E18D00C2E01D173
:100A2000032F14D06068B0F5803F17D0B0F5A02F29
:100A3000286817D020F480302860286820F48020AF
:100A400028606068E0B1FFF789FD804614E02868FF
:100A5000800322D56068002878D01EE0286840F422
:100A60008030EDE740F480202860F7E7FFF776FD5F
:100A7000A0EB08006428A4D828688003F6D50CE011
:100A8000FFF76CFD804605E0FFF768FDA0EB08006E
:100A9000642896D828688003F6D4207880073BD550
:100AA000042E11D00C2E01D1022F0DD0E06801E0F0
:100AB00086E1D6E0002828681ED040F480702860C7
:100AC000FFF74CFD07460CE0286840050CD5E068B0
:100AD0000028C1D008E000BFFFF740FDC01B02287E
:100AE00093D828684005F7D56868217C20F0F85035
:100AF00040EA016068600FE020F480702860FFF732
:100B00002DFD074605E000BFFFF728FDC01B0228AA
:100B1000B1D828684005F7D42078000729D5606946
:100B20000028D5F8940012D040F00100C5F89400D8
:100B3000FFF714FD074604E0FFF710FDC01B022875
:100B400099D8D5F894008007F6D512E000E120F09E
:100B50000100C5F89400FFF701FD074605E000BF5E
:100B6000FFF7FCFCC01B02287BD8D5F89400800757
:100B7000F6D42078400766D5A86D0027C00008D4B9
:100B8000A86D40F08050A865A86D012700F0805046
:100B9000009052480168C90512D40168814641F4A9
:100BA00080710160FFF7DAFC804605E0FFF7D6FCB4
:100BB000A0EB0800022854D8D9F80000C005F5D5EC
:100BC000A068012816D00528D5F8900017D020F08D
:100BD0000100C5F89000D5F8900020F0040000BF97
:100BE000C5F89000A06841F28839C0B1FFF7B6FCA3
:100BF00080460FE0D5F8900040F00100F0E740F0AB
:100C00000400C5F89000F5E7FFF7A8FCA0EB080189
:100C1000494526D8D5F890008007F5D50EE0FFF7B6
:100C20009DFC804606E000BFFFF798FCA0EB0801A2
:100C3000494516D8D5F890008007F5D41FB1A86DA6
:100C400020F08050A865A06AF0B302280AD00C2ECC
:100C50007ED0286820F080702860FFF77FFC044673
:100C6000B0E0ACE0E868E26A00F00301914229D10B
:100C7000216B00F0700209011039914222D1626BA0
:100C800000F4FE41B1EB022F1CD1A26B00F4003145
:100C9000072A01D0012200E00022914212D1A18F47
:100CA00000F4C00249084905A1F50011914209D19B
:100CB00094F8401000F0C06049084906A1F10071A5
:100CC00081425ED00C2E0BE072E00000001002406A
:100CD000F00F00080C00002004000020007000400D
:100CE00079D02868400176D42868C00073D4286879
:100CF00020F080702860FFF731FC064605E000BF59
:100D0000FFF72CFC801B022859D828688001F7D4F3
:100D1000D4E90B016FF00F0202EB01110843A18F20
:100D20005204490802EB4151626B41EA0221084337
:100D300094F840104FF07E42490802EB41610843AD
:100D4000A16B090940EA4140E968244A114000E0EA
:100D500041E00843E860286840F080702860E86857
:100D600040F08070E860FFF7F9FB044605E000BF43
:100D7000FFF7F4FB001B022821D828688001F7D573
:100D800027E02868800124D4286840F0807028601B
:100D9000E86840F08070E860FFF7E0FB044604E09C
:100DA000FFF7DCFB001B022809D828688001F7D573
:100DB0000FE000BFFFF7D2FB001B022802D903207F
:100DC000BDE8F88328688001F4D4E8680449084045
:100DD000E8600020F4E70120F2E700008C809DF934
:100DE000FCFFEEFE10B5401EB0F1807F01D3012064
:100DF00010BD4FF0E02460610F21601700F0DBF8B8
:100E00000020A06107202061002010BDFEE7000047
:100E1000F0B587B014216846FFF726FA1F48C16C69
:100E200041F01001C164C16C01F010010591C16C69
:100E300041F00801C164C06C194F00F00800059032
:100E4000012280213846FFF784FB4FF440760022D0
:100E500031463846FFF77DFB80200125CDE90005AE
:100E600000240220CDE9024069463846FFF762FAC5
:100E70000096CDE90154694638460394FFF75AFAC3
:100E80004FF4E06000904FF48810CDE9010469460A
:100E90000448FFF74FFA07B0F0BD00000010024011
:100EA00000100048000C0048FEE7FEE77047000015
:100EB000F8B51C4D06460024A86DC00002D5FFF70A
:100EC00009FC0DE0A86D40F08050A865A86D00F009
:100ED00080500090FFF7FEFBA96D21F08051A965BD
:100EE000B0F5007F04D0802E07D94FF003040AE04C
:100EF000802E08D9A02E01D804E001D1022402E0FE
:100F0000702E00D101240848016821F00701214317
:100F10000160006800F00700A04201D00120F8BD88
:100F20000020F8BD00100240002002407047FFF78B
:100F30001BBB00B597B044216846FFF795F9142113
:100F400011A8FFF791F94FF40070FFF78FFB08B17C
:100F500072B6FEE70220C101039110210491142111
:100F60000090CDE90C010A900721CDE90E100B90FD
:100F700010906846FFF7AAFC08B172B6FEE70F2092
:100F800011900320129000201390149015900421CA
:100F900011A8FFF7A7FB002801D072B6FEE717B033
:100FA00000BD00000248016841F470010160704713
:100FB00088ED00E0FEE70907090E002804DB00F1D8
:100FC000E02080F80014704700F00F0000F1E020EE
:100FD00080F8141D7047FFF7CFFAFFF7AAFFFFF75D
:100FE00017FFFEE74FF04070E1EE100A7047000077
:100FF00000000000000000000102030406070809C9
:10100000A0860100400D0300801A060000350C0088
:1010100040420F0080841E0000093D0000127A004B
:101020000024F40000366E010048E801006CDC0288
:10103000501000080000002010000000C40100084B
:10104000601000081000002060060000E0010008A9
:1010500001000000100000000000000000093D0039
:040000050800018965
:00000001FF
