:020000040800F2
:100000004007002029020008AB1900083919000830
:10001000A919000887040008DD210008000000007D
:10002000000000000000000000000000611C00084B
:100030008904000800000000AD190008631C0008D6
:10004000430200084302000843020008430200087C
:10005000430200084302000843020008430200086C
:10006000430200084302000843020008430200085C
:10007000430200084302000843020008430200084C
:10008000430200084302000843020008430200083C
:10009000430200084302000843020008430200082C
:1000A000430200084302000843020008430200081C
:1000B000430200084302000843020008430200080C
:1000C00043020008430200084302000843020008FC
:1000D00043020008AD210008430200084302000863
:1000E00043020008430200084302000843020008DC
:1000F00043020008430200084302000843020008CC
:1001000043020008430200084302000843020008BB
:1001100043020008430200084302000843020008AB
:10012000430200084302000843020008430200089B
:10013000430200084302000843020008430200088B
:10014000430200084302000843020008430200087B
:10015000430200084302000843020008430200086B
:10016000430200084302000843020008430200085B
:1001700043020008430200080000000000000000E5
:10018000430200084302000800F002F800F03CF8C7
:100190000AA090E8000C82448344AAF10107DA45E2
:1001A00001D100F031F8AFF2090EBAE80F0013F0F8
:1001B000010F18BFFB1A43F001031847602300002A
:1001C00080230000103A24BF78C878C1FAD85207BB
:1001D00024BF30C830C144BF04680C6070470000C1
:1001E0000023002400250026103A28BF78C1FBD840
:1001F000520728BF30C148BF0B6070471FB502F0DF
:1002000063F91FBD10B510BD00F003F91146FFF7EB
:10021000F5FF02F03DF900F021F903B4FFF7F2FF1A
:1002200003BC00F029F9000009488047094800474D
:10023000FEE7FEE7FEE7FEE7FEE7FEE7FEE7FEE796
:10024000FEE7FEE704480549054A064B70470000F3
:10025000E51C00088901000840010020400700203B
:10026000400300204003002053EA020C00F06980A4
:100270002DE9F04B4FF00006002B1FBFB3FA83F5BA
:1002800003FA05F424FA05F65E4012BF1643B2FAEB
:1002900082F502FA05F4C5F120051EBF22FA05FC1D
:1002A00044EA0C04203556EA044C4FEA144418BFC3
:1002B000641C4FF000084FF00009904271EB030CF2
:1002C00039D3002919BFB1FA81F701FA07F6B0FA5C
:1002D00080F700FA07F6C7F120071EBF20FA07FCD7
:1002E00046EA0C062037B6FBF4FCA7EB0507103FE7
:1002F00007F01F0BCBF120060CFA0BFB2CFA06F6CD
:1003000044BFB3460026202FA4BF5E464FF0000B2B
:100310005BEA060C08BF4FF0010B19EB0B09ABFBB6
:10032000027C48EB0608C01B06FB02CC0BFB03CC8F
:1003300071EB0C01C1E70B46024641464846BDE859
:10034000F08B13B54FF000004FF00001AFF30080C9
:10035000BDE81C40704730B505460B462A4613F8E9
:10036000014B12F8010B08B1A042F8D01CB10028D3
:1003700002D06D1CF1E7284630BD4FF00002042981
:10038000C0F0128010F0030C00F01B80CCF1040CC4
:10039000BCF1020F18BF00F8012BA8BF20F8022BF8
:1003A000A1EB0C0100F00DB85FEAC17C24BF00F89E
:1003B000012B00F8012B48BF00F8012B70474FF0CC
:1003C000000200B5134694469646203922BFA0E8A5
:1003D0000C50A0E80C50B1F12001BFF4F7AF0907B1
:1003E00028BFA0E80C5048BF0CC05DF804EB8900A2
:1003F00028BF40F8042B08BF704748BF20F8022BE5
:1004000011F0804F18BF00F8012B704770477047FC
:100410007047754600F02CF8AE4605006946534615
:1004200020F00700854618B020B5FFF70BFFBDE8A8
:1004300020404FF000064FF000074FF000084FF04B
:10044000000B21F00701AC46ACE8C009ACE8C009DC
:10045000ACE8C009ACE8C0098D46704710B5044649
:10046000AFF300802046BDE81040FFF7D6BE000085
:1004700000487047DC00002001491820ABBEFEE7B1
:10048000260002007047FEE7704772B6FEE710B51F
:1004900090F825100022022905D00421C16380F8BC
:1004A0002420012010BD01680B6823F00E030B60AF
:1004B00001680B6823F001030B6090F84410046C92
:1004C00001F01C03012101FA03F3636080F8251099
:1004D00080F82420104610BD10B590F82510002497
:1004E000022903D00421C16301241AE001680A68CB
:1004F00022F00E020A6001680A6822F001020A6016
:1005000090F84410036C01F01C02012101FA02F280
:100510005A6080F82510002180F82410816B01B109
:100520008847204610BD000070B5044600F028F949
:100530000546601C02D004480078044400F020F90D
:10054000401BA042FAD370BD040000202DE9F04FFB
:10055000DFF8EC9100220127A9F1040B85B00325F7
:100560004FF00F0C09F1040AABF1040EE0E000BFFC
:1005700007FA02F416EA04037ED00E7906F00306A9
:10058000012E01D0022E1FD186680096560005FA72
:1005900006F80496009E26EA08060096D1F80C801C
:1005A000049E08FA06F8009E48EA0608C0F808808B
:1005B000466891F80480A643C8F3001808FA02F8C8
:1005C00048EA0608C0F80480D1F804806FEA0806FB
:1005D000B6070AD1C66AA643C8F3C00494403443A0
:1005E000C4620C79E443A4070AD0C4684FEA420805
:1005F00005FA08F6B4438E6806FA08F62643C66084
:100600000C7904F00304022C11D1D40800EB840609
:100610000296D6F820805407E60E0CFA06F428EA73
:1006200004080C69B440029E44EA08043462046879
:100630005600029605FA06F6B4430E7906F0030852
:10064000029E08FA06F848EA0408C0F800804C68E0
:1006500014F4403F6BD03B4C266E46F001062666F4
:10066000246E22F0030604F001040094364C344456
:100670000294A468960700E059E04FEA16780CFA55
:1006800008F6B443B0F1904F04D0304EB04203D1DD
:1006900001261BE0002619E02D4EB04201D10226B2
:1006A00014E02C4EB04201D103260FE02A4EB04296
:1006B00001D104260AE0294EB04201D1052605E009
:1006C000274EB04201D1062600E0072606FA08F6BA
:1006D0002643029CA660D9F800404E46D1F804801B
:1006E0009C435FEAC82800D51C433460DAF8004018
:1006F0005646D1F804809C435FEA882800D51C4305
:100700003460DBF800405E46D1F804809C435FEA29
:10071000883800D51C433460DEF800407646D1F8B6
:1007200004809C435FEAC83800D51C433460521CE7
:100730000B681E46D3407FF41BAF05B000F012B823
:10074000080401400010024000000140000400487D
:1007500000080048000C0048001000480014004841
:100760000018004830BCBDE8C08F0069084000D0C8
:10077000012070470AB181617047816270470000B3
:10078000014880687047000004000020024881682A
:1007900002781144816070470400002010B50024E5
:1007A000032000F071F80F2000F008F808B10124D0
:1007B00001E000F025F8204610BD000070B50E4E97
:1007C00005460024307898B14FF47A71B1FBF0F00F
:1007D0000A490968B1FBF0F000F020FE40B9102D85
:1007E00006D200222946501E00F02EF8756000E067
:1007F0000124204670BD00000400002010000020ED
:10080000094808B5016E41F001010166016E01F071
:1008100001010091816D41F080518165806D00F092
:100820008050009008BD000000100240002809DB45
:1008300000F01F02012191404009800000F1E020FA
:10084000C0F8001170470000F0B40E4B1B680C4656
:10085000C3F30223C3F10705042D00D90425191D94
:10086000072901D2002300E0DB1E012606FA05F16C
:10087000491E214099409E40761E16403143F0BCEF
:1008800001F0ADBC0CED00E0064900F0070208687D
:100890004FF6FF03184040EA0220034A1043086065
:1008A000704700000CED00E00000FA051649B0F5B5
:1008B000007F0868C0F3412009D0022805D00868ED
:1008C00020F4C06040F48060086000207047012878
:1008D000FBD0086820F4C06040F4007008600B484A
:1008E0003222006850430A4AB0FBF2F0401C00E09C
:1008F000401E4A69520501D50028F9D148694005D2
:10090000E3D5032070470000007000401000002075
:1009100040420F000248006800F4C06070470000C9
:10092000007000402DE9F84F044600270088E54D8F
:100930003E46010504F1200B1DD5606E78B1B0F57F
:10094000800F11D0B0F5000F04D0B0F5400F22D0C9
:1009500001270FE0E86840F48030E8601BE00021E8
:10096000201D01F025F803E00021584601F0B6F8FB
:10097000070010D03E462088C00426D5A06EC0B126
:10098000B0F1807F1AD0B0F1007F0DD0B0F1407F80
:1009900019D0012718E0D5F88800616E20F44000D6
:1009A0000843C5F88800E6E7E86840F48030E8606E
:1009B00009E00021201D00F0FBFF03E00021584664
:1009C00001F08CF80746F7B13E46206880033AD51F
:1009D000A86D4FF00008C00009D4A86D40F0805009
:1009E000A865A86D4FF0010800F080500090DFF876
:1009F000D8A2DAF8001041F48071CAF80010FFF7AD
:100A0000BFFE814610E0D5F88800A16E20F040704E
:100A10000843C5F88800D8E7FFF7B2FEA0EB09004D
:100A2000022801D9032705E0DAF80000C005F3D554
:100A3000002F7CD04FEA0706B8F1000F03D0A86D55
:100A400020F08050A8652078C00707D0D5F888002E
:100A5000A16B20F003000843C5F8880020788007C8
:100A600007D5D5F88800E16B20F00C000843C5F8E5
:100A700088002078400707D5D5F88800216C20F041
:100A800030000843C5F888002078000707D5D5F85E
:100A90008800616C20F0C0000843C5F88800207809
:100AA000C00607D5D5F88800A16C20F44070084333
:100AB000C5F888002078800607D5D5F88800E16C55
:100AC00020F440600843C5F888002088800507D5D9
:100AD000D5F88800E16D20F440200843C5F888006F
:100AE0002088400507D5D5F88800216E20F44010F5
:100AF0000843C5F888002078400607D5D5F8880057
:100B0000216D20F440500843C5F888002078000685
:100B100007D5D5F88800616D20F440400843C5F83A
:100B200088002088C00509D5D5F8880000E01CE0C1
:100B3000A16D20F440300843C5F8880020884FF0AC
:100B4000006780044FF080684FD5D5F88800E16ECB
:100B500020F040600843C5F88800E06EB8423CD100
:100B6000E86840F48010E8603FE0D5F8900010F4A9
:100B7000407015D0D4F88410814211D0D5F890007F
:100B8000D5F8901020F4407041F48031C5F89010F1
:100B9000D5F8901021F48031C5F89010C5F8900078
:100BA000C00710D0FFF7ECFD074641F2883906E098
:100BB000FFF7E6FDC11B494501D903263CE7D5F8FF
:100BC00090008007F4D5D5F89000D4F8841020F474
:100BD00040700843C5F890002EE7404505D101213B
:100BE000201D00F0E5FE00B106462068000317D581
:100BF000D5F88800216F20F040600843C5F88800D0
:100C0000206FB84204D1E86840F48010E86007E043
:100C1000404505D10121201D00F0CAFE00B1064665
:100C20002068400317D5D5F88800616F20F0406038
:100C30000843C5F88800606FB84204D1E86840F402
:100C40008010E86007E0404505D10121201D00F03B
:100C5000AFFE00B10646208840041AD5D5F88800BA
:100C6000A16F20F040500843C5F88800A06FB0F194
:100C7000805F03D0B0F1005F05D00AE00221201DA3
:100C800000F096FE03E00221584600F027FF00B175
:100C900006462088000407D5D5F88800E16F20F0CB
:100CA00080400843C5F888002068C00307D555F880
:100CB000880FD4F8801020F00040084328603046A8
:100CC00000F004B8001002400070004018BCBDE8FD
:100CD000E08F00002DE9F0470F4605006BD0494E2C
:100CE000306800F00700B84209D2306820F00700F1
:100CF00038433060306800F00700B8425BD1287894
:100D0000414C80070AD5A868A16801F0F00188422B
:100D100004D9A16821F0F0010143A1602878C0073F
:100D20002CD06868032811D0022812D0216898B10D
:100D3000490500293FDAA16821F003010143A160C0
:100D4000FFF71EFD804641F2883910E021688901D5
:100D5000EFE721688903ECE78907EAE7FFF710FD71
:100D6000A0EB0801494502D90320BDE8F087A0683F
:100D7000696800F00C00B0EB810FEFD12878800794
:100D80000AD5A868A16801F0F001884204D2A168E0
:100D900021F0F0010143A160306800F00700B84283
:100DA0000BD9306820F0070038433060306800F01D
:100DB0000700B84201D00120D7E72878400705D5C1
:100DC000A068E96820F4E0600843A0602878000784
:100DD00006D5A068296920F4605040EAC100A060EF
:100DE00000F03EF8A168094AC1F30311515C01F01B
:100DF0001F01C8400649086006480068BDE8F04782
:100E0000FFF7DCBC0020024000100240D4240008A0
:100E10001000002008000020054806490068896885
:100E2000054AC1F30221515C01F01F01C84070471F
:100E30001000002000100240142500080548064953
:100E400000688968054AC1F3C221515C01F01F01A5
:100E5000C840704710000020001002401425000810
:100E600070B52549002318468A68CC6812F00C0238
:100E700004F00306214C4FEA640509D00C2A05D082
:100E8000042A32D0082A00D1284670BD012E10D184
:100E90000B681B0704D4D1F89430C3F3032302E09A
:100EA0000B68C3F30313164E56F82330DAB10C2A3D
:100EB000EBD1C86800F00300022818D0032818D02E
:100EC0001846CA68CB68C2F30212C3F30623434331
:100ED000521CB3FBF2F2C868C0F34160401C4000F2
:100EE000B2FBF0F070BD184670BD204670BD2046C4
:100EF000E7E72846E5E70000001002400024F40080
:100F0000E42400082DE9F84304006FD0FD4DA868E3
:100F100000F00C06E86800F003072078C00664D5EE
:100F200076B10C2E01D1012F0AD0A06900282868C3
:100F30007AD040F001002860FFF722FC80465DE097
:100F40002868800702D5A0690028DED0216A2868B9
:100F5000000703D5286800F0F00004E0D5F89400FD
:100F6000F02202EA1010814216D9084600F03AFE3B
:100F700000283BD1286840F0080028602868216AD2
:100F800020F0F000084328606868E16920F47F40A1
:100F900040EA0120686016E0286840F008002860F8
:100FA0002868216A20F0F000084328606868E16939
:100FB00020F47F4040EA0120686026B9206A00F0F2
:100FC00011FE0028D5D1FFF74BFFA968CE4AC1F327
:100FD0000311515C01F01F01C840CC490860CC48A6
:100FE0000068FFF7EBFB00287ED12EE0CAE000BFCF
:100FF000FFF7C6FBA0EB0800022876D82868800718
:10100000F6D5286840F0080028602868216A20F09A
:10101000F000084328606868E16920F47F4040EAF6
:101020000120686011E0FFE720F001002860FFF771
:10103000A7FB804606E000BFFFF7A2FBA0EB08007D
:101040000228DAD828688007F6D42078C00740D074
:10105000082E18D00C2E01D1032F14D06068B0F5E3
:10106000803F17D0B0F5A02F286817D020F480302B
:101070002860286820F4802028606068E0B1FFF7CD
:101080007FFB804614E02868800322D56068002832
:1010900078D01EE0286840F48030EDE740F48020EE
:1010A0002860F7E7FFF76CFBA0EB08006428A4D8E2
:1010B00028688003F6D50CE0FFF762FB804605E068
:1010C000FFF75EFBA0EB0800642896D82868800331
:1010D000F6D4207880073BD5042E11D00C2E01D1F8
:1010E000022F0DD0E06801E086E1D6E000282868F4
:1010F0001ED040F480702860FFF742FB07460CE0EA
:10110000286840050CD5E0680028C1D008E000BF81
:10111000FFF736FBC01B022893D828684005F7D597
:101120006868217C20F0F85040EA016068600FE0B8
:1011300020F480702860FFF723FB074605E000BF1E
:10114000FFF71EFBC01B0228B1D828684005F7D462
:101150002078000729D560690028D5F8940012D0BE
:1011600040F00100C5F89400FFF70AFB074604E0D1
:10117000FFF706FBC01B022899D8D5F8940080071A
:10118000F6D512E000E120F00100C5F89400FFF769
:10119000F7FA074605E000BFFFF7F2FAC01B022886
:1011A0007BD8D5F894008007F6D42078400766D520
:1011B000A86D0027C00008D4A86D40F08050A86535
:1011C000A86D012700F08050009052480168C905C1
:1011D00012D40168814641F480710160FFF7D0FAB2
:1011E000804605E0FFF7CCFAA0EB0800022854D8AF
:1011F000D9F80000C005F5D5A068012816D005284B
:10120000D5F8900017D020F00100C5F89000D5F86F
:10121000900020F0040000BFC5F89000A06841F2E3
:101220008839C0B1FFF7ACFA80460FE0D5F89000DE
:1012300040F00100F0E740F00400C5F89000F5E749
:10124000FFF79EFAA0EB0801494526D8D5F8900093
:101250008007F5D50EE0FFF793FA804606E000BF61
:10126000FFF78EFAA0EB0801494516D8D5F8900093
:101270008007F5D41FB1A86D20F08050A865A06A42
:10128000F0B302280AD00C2E7ED0286820F080709F
:101290002860FFF775FA0446B0E0ACE0E868E26A5F
:1012A00000F00301914229D1216B00F07002090185
:1012B0001039914222D1626B00F4FE41B1EB022F52
:1012C0001CD1A26B00F40031072A01D0012200E0FA
:1012D0000022914212D1A18F00F4C00249084905B1
:1012E000A1F50011914209D194F8401000F0C060BE
:1012F00049084906A1F1007181425ED00C2E0BE035
:1013000072E0000000100240D42400081000002009
:10131000080000200070004079D02868400176D491
:101320002868C00073D4286820F080702860FFF718
:1013300027FA064605E000BFFFF722FA801B0228C5
:1013400059D828688001F7D4D4E90B016FF00F0257
:1013500002EB01110843A18F5204490802EB4151ED
:10136000626B41EA0221084394F840104FF07E423C
:10137000490802EB41610843A16B090940EA414079
:10138000E968244A114000E041E00843E860286829
:1013900040F080702860E86840F08070E860FFF7F7
:1013A000EFF9044605E000BFFFF7EAF9001B022849
:1013B00021D828688001F7D527E02868800124D447
:1013C000286840F080702860E86840F08070E8602D
:1013D000FFF7D6F9044604E0FFF7D2F9001B022814
:1013E00009D828688001F7D50FE000BFFFF7C8F9DA
:1013F000001B022802D90320BDE8F8832868800179
:10140000F4D4E86804490840E8600020F4E70120CB
:10141000F2E700008C809DF9FCFFEEFE10B5401E47
:10142000B0F1807F01D3012010BD4FF0E024606156
:101430000F21601700F0D3FE0020A061072020617B
:10144000002010BD704770477047000070B504461B
:10145000216851E8000F20F4907041E80002002A52
:10146000F6D12068083050E8001F21F0010140E863
:101470000012002AF5D1206E012808D1206850E81A
:10148000001F21F0100140E80012002AF6D1216867
:1014900088684FF00F0245064FF000004FF0200320
:1014A00026D52168083151E8005F25F0400541E864
:1014B0000056002EF5D1216F49B110488863206F86
:1014C000FFF70AF890B1206F816B88470EE0A4F80F
:1014D0005A00606521680A6221680A8B42F008029E
:1014E0000A83E36720662046FFF7AEFF002070BD49
:1014F000A4F85A0060650A62F3E700002D1E000898
:10150000704700002DE9F04102680446D069116877
:10151000936840F60F0528424FF0000505D1860676
:101520007ED58E067CD5616E1BE1994F03F00106D6
:101530000F40374374D0C70709D0CF0507D501271F
:101540001762D4F8802042F00102C4F8802082079C
:101550000AD5DA0708D0276802223A62D4F8802038
:1015600042F00402C4F8802042070AD5DA0708D006
:10157000236804221A62D4F8802042F00202C4F8E0
:10158000802002070CD501F02002324308D02368E6
:1015900008221A62D4F8802042F00802C4F88020A1
:1015A00002050BD54A0109D523684FF400621A627F
:1015B000D4F8802042F02002C4F88020D4F88020A3
:1015C000002A35D0800605D5880603D5616E09B19D
:1015D00020468847D4F8800021688968490602D4EB
:1015E00010F0280F26D0204600F033FC20688068D9
:1015F00040061AD52068083050E8001F21F040014D
:1016000040E80012002AF5D1206F70B16149816372
:10161000206FFEF761FF00280AD0206F816B01E088
:101620000EE02046BDE8F04108472046FFF768FF7E
:10163000BDE8F0812046FFF763FFC4F88050F7E76C
:10164000276E2026012F7BD1C70679D5CF0677D507
:101650001020106220688068400641D5216F08681C
:1016600040680004000CE3D0B4F858208242DFD96F
:10167000A4F85A000868006880062AD4206850E858
:10168000001F21F4807140E80012002AF6D1206882
:10169000083050E8001F21F0010140E80012002A44
:1016A000F5D12068083050E8001F21F0400140E8E3
:1016B0000012002AF5D1E6672566216851E8000F7F
:1016C00020F0100041E80002002AF6D1206FFEF75A
:1016D000DEFEB4F85800B4F85A10401A81B22AE07D
:1016E000B4F85800B4F85A10401A81B2B4F85A004D
:1016F00000289DD000299BD0226852E8000F20F4DA
:10170000907042E80003002BF6D12068083050E8C2
:10171000002F22F0010240E80023002BF5D1E667FC
:1017200025666566226852E8000F20F0100042E846
:101730000003002BF6D12046FFF784FE78E7FFE791
:10174000C70209D55B0207D54FF48010106220460E
:10175000BDE8F041FFF777BE020606D50A0604D5BC
:10176000A16E00297FF45DAF62E74006E6D548062A
:10177000E4D52046026852E8001F21F0400142E80B
:101780000013002BF6D18667856600F0D4F84FE78A
:1017900020010004191E000810B5040002D0A06F3B
:1017A00010B107E0012010BD002084F8740020462D
:1017B00000F026F82420A0672068016821F00101CC
:1017C0000160204600F06AFB0128ECD0606A10B18D
:1017D000204600F08FFA2068416821F49041416072
:1017E0002068816821F02A0181602068016841F049
:1017F000010101602046BDE8104000F0DFBA0000A2
:1018000010B5A8B00446142122A8FEF7D8FD8821FF
:101810006846FEF7D4FD18492068884229D1012086
:10182000002400900E946846FFF77CF808B1FEF79C
:101830002CFE1248016E41F480410166016E01F4F4
:1018400080412791C16C41F00101C164C06C22A9A3
:1018500000F0010027904FF4C06022900220CDE9F3
:10186000230403202590072026904FF09040FEF798
:101870006DFE28B010BD000000380140001002408D
:101880002DE9F8430446806F1F4616460D46202872
:101890004FD1CDB1C6B194F87400012849D00120D0
:1018A00084F874004FF00008C4F880802120A067FD
:1018B000FEF766FFA4F850608146A4F85260A06865
:1018C000B0F5805F03D004E00120BDE8F883206913
:1018D00028B12E465FF0000584F8748010E00026E1
:1018E000FAE78021204600F0FDFBB8B9C6B116F832
:1018F000010B21680885B4F85200401EA4F852007C
:10190000B4F852004B464FF0000200970028E8D18F
:101910004FF04001204600F0E5FB30B10320D4E752
:1019200035F8020BC0F30800E3E72020A067002091
:10193000CBE70220C9E77047FEE70000054808B57D
:10194000C16C41F00101C164C06C00F00100009065
:1019500008BD00000010024010B5124C10480C21C8
:1019600020604FF4E13060600020A060E060C4E9D6
:101970000401A0612046FFF70FFF08B1FEF785FDC7
:101980002068016841F0200101602520FEF74EFF2C
:101990000322BDE8104011462520FEF755BF000088
:1019A0000038014058000020FEE7FEE770470000C5
:1019B0002DE9F041444C05468846E0680026810741
:1019C00028680DD0E16801F00301814216D1A8B169
:1019D000E0686968C0F30210401C88420ED120E024
:1019E000012804D0022805D0032807D108E0216887
:1019F000890701E021684905002907DB01265FE02E
:101A00002168890302D421684903F5E7E1686A681F
:101A10006FF00F0321F0730103EB02121143014336
:101A2000E160206820F080602060FEF7A9FE074694
:101A300005E000BFFEF7A4FEC01B022837D82068CF
:101A40000001F7D4B8F1000F18D0B8F1010F1ED083
:101A5000287D4FF07E41400801EB4060A96840EAD4
:101A600001202169194A114008432061206840F093
:101A700080602060FEF784FE07461AE0A868E968E7
:101A80000002090940EA41402169114AEBE7288A2E
:101A90001049400801EB4050A96840EA0120216943
:101AA0000D4AE0E7FEF76CFEC01B022801D90326B1
:101AB00006E020680001F5D52069A9690843206186
:101AC0003046BDE8F081000000100240FF80FFF9C1
:101AD000FF80FDFF0000E0FFFF809FFF2DE9F04148
:101AE0003D4C06468846E0680025810730680DD0E9
:101AF000E16801F00301814216D1A8B1E068716884
:101B0000C0F30210401C88420ED120E0012804D00E
:101B1000022805D0032807D108E02168890701E0E1
:101B200021684905002907DB012551E02168890367
:101B300002D421684903F5E7E16872686FF00F038A
:101B400021F0730103EB021211430143E1602068AD
:101B500020F080502060FEF713FE074605E000BF2E
:101B6000FEF70EFEC01B022829D820688000F7D49B
:101B7000B8F1000F15D0307C4FF07E41400801EBEA
:101B80004060B16840EA01206169144A114008438D
:101B90006061206840F080502060FEF7F1FD07464C
:101BA0000FE0B068F1680002090940EA414061694C
:101BB0000B4AEBE7FEF7E4FDC01B022801D9032521
:101BC00006E020688000F5D56069716908436061AE
:101BD0002846BDE8F081000000100240FF80FFF9B8
:101BE000FF80FDFFF8B51C4D06460024A86DC0001F
:101BF00002D5FEF78FFE0DE0A86D40F08050A8657D
:101C0000A86D00F080500090FEF784FEA96D21F0D1
:101C10008051A965B0F5007F04D0802E07D94FF020
:101C200003040AE0802E08D9A02E01D804E001D1D7
:101C3000022402E0702E00D101240848016821F03E
:101C4000070121430160006800F00700A04201D0B5
:101C50000120F8BD0020F8BD001002400020024025
:101C6000704710B5FEF792FDBDE8104000F022BCB1
:101C700000B597B044216846FEF7A1FB142111A8D6
:101C8000FEF79DFB4FF40070FEF710FE08B172B630
:101C9000FEE70220C10103911021009004910A90F7
:101CA0000121CDE90B010A210D910721CDE90E108B
:101CB00010906846FFF726F908B172B6FEE70F20CC
:101CC000119003201290002013901490159004217D
:101CD00011A8FEF7FFFF002801D072B6FEE717B08B
:101CE00000BD00000248016841F4700101607047C6
:101CF00088ED00E090F82410C90706D001684A6812
:101D0000836A22F400321A434A6090F8241089074B
:101D100006D501684A68C36A22F480321A434A60D1
:101D200090F82410490706D501684A68036B22F42D
:101D300080221A434A6090F82410090706D50168EA
:101D40004A68436B22F400421A434A6090F8241018
:101D5000C90606D501688A68836B22F480521A434B
:101D60008A6090F82410890606D501688A68C36BDA
:101D700022F400521A438A6090F82410490611D5C3
:101D800001684A68036C22F480121A434A60016CAD
:101D9000B1F5801F06D101684A68436C22F4C00285
:101DA0001A434A6090F82410090606D501684A686B
:101DB000806C22F4002202434A607047F8B5002686
:101DC0000446C0F88060FEF7DBFC0546206800682A
:101DD0006FF07E47000708D52B4600224FF4001114
:101DE0002046009700F07EF960B92068006840073F
:101DF0000AD52B4600224FF480012046009700F0C0
:101E000071F908B10320F8BD2020A067E0672666BD
:101E100084F874600020F8BD10B5806A0021A0F835
:101E20005A10A0F85210FFF76BFB10BD10B5806A76
:101E30000021A0F85A1003680F221A620268138B5F
:101E400043F0080313832022C2670166FFF7FCFA00
:101E500010BD016851E8002F22F4907241E8002380
:101E6000002BF6D10168083151E8002F22F0010261
:101E700041E80023002BF5D1016E012908D1026849
:101E800052E8001F21F0100142E80013002BF6D1A8
:101E90002021C16700210166416670472DE9F041AC
:101EA0000446016880682269E3691043626900257D
:101EB0001A431043814F0A68814B1A4002430A605B
:101EC00020684168E26821F4405111434160216873
:101ED000A069B94201D0226A10438A6822F43062B4
:101EE00002438A607749226877488A420DD1D0F848
:101EF000880010F0030006D0012866D0022854D0D4
:101F0000032851D163E001204FE070498A420BD190
:101F1000D0F8880010F00C0047D0042845D00828DD
:101F200051D00C2840D152E069498A420BD1D0F8F7
:101F3000880010F0300038D0102846D0202842D039
:101F4000302831D143E063498A420BD1D0F8880070
:101F500010F0C00029D0402837D0802833D0C028C6
:101F600022D134E05C498A420ED1D0F8880010F4C6
:101F700040701AD0B0F5807F27D0B0F5007F22D016
:101F8000B0F5407F10D122E0BA420DD1D0F88800E0
:101F900010F4406009D0B0F5806F16D0B0F5006F36
:101FA00011D0B0F5406F12D010204C4900264FF4EC
:101FB0000043BA422ED160B102280DD004280DD0C2
:101FC00008286FD10EE00220EFE70420EDE708209B
:101FD000EBE7FEF721FF03E00B4603E0FEF740FFCF
:101FE000030060D0626802EB420098425AD8B3EB1B
:101FF000023F57D8190E1B025008181871410023D0
:10200000FEF732F9364AA0F5407191424AD821686C
:10201000C86048E0E2694FF6EF779A4227D1092875
:1020200040D2DFE800F005080D3F213F3F3F0E00A2
:10203000FEF7F2FE01E0FEF701FF030001D132E0FE
:102040000B466068590001EB5001B1FBF0F0A0F1C4
:102050001001B94226D84FF6F0710140C0F342009A
:1020600001432068C1601EE0FEF7FAFEE5E709289B
:1020700018D2DFE800F005080D171D1717170E001E
:10208000FEF7CAFE01E0FEF7D9FE030001D10AE027
:102090000B46606803EB5001B1FBF0F0A0F11001BA
:1020A000B94208D9012566662846A666BDE8F081D2
:1020B000FEF7D6FEE9E780B2A9E700000080004005
:1020C000F369FFEF00380140001002400044004077
:1020D00000480040004C0040005000400024F40044
:1020E000FFFC0F002DE9F0479A4617460E460446BE
:1020F0004FF000094FF02008089D4AE0681C48D0C6
:10210000FEF73EFBA0EB0A00A8422AD84DB3206898
:10211000016849073DD5C069C043000539D421682D
:102120004FF400600862206850E8001F21F4D0716D
:1021300040E80012002AF6D12068083050E8001F5D
:1021400021F0010140E80012002AF5D1C4F878809E
:10215000C4F87C80C4F8808084F874900320BDE8C3
:10216000F087216851E8000F20F4D07041E80002A8
:10217000002AF6D12068083050E8001F21F0010144
:1021800040E80012002AF5D1C4F87880C4F87C80B9
:10219000E2E72068C06936EA000004D00020B842B7
:1021A000ACD00020DBE70120F9E700000948006817
:1021B000C069C043800609D40748142141700178E2
:1021C0004A1C0270402901D3002101700148FFF729
:1021D00099B900005800002014000020FEE709070C
:1021E000090E002804DB00F1E02080F8001470479D
:1021F00000F00F0000F1E02080F8141D704700008F
:1022000010B500F0D1F84FF47A7301280AD00228F3
:102210000BD003280CD1052206A1BDE810400748C9
:10222000FFF72EBB042206A1F7E7052206A1F4E77B
:1022300010BD00006B6579320000000058000020DE
:102240006B657930000000006B657931000000009B
:102250002DE9F041284C607800284AD120780028E8
:102260003FD02648FFF7F2F825A1A01CFEF773F82F
:10227000254D08B1002217E024A1A01CFEF76BF841
:102280004FF4807608B1002216E022A1A01CFEF7D0
:1022900062F84FF4007708B1002215E01FA1A01CDE
:1022A000FEF759F810B10122802117E01DA1A01CF2
:1022B000FEF751F810B1012231460FE01BA1A01C1E
:1022C000FEF749F810B10122394607E019A1A01C18
:1022D000FEF741F828B101224FF460712846FEF75D
:1022E00049FA002020704021A01CBDE8F041FEF713
:1022F00044B8BDE8F0810000140000205800002020
:10230000525F4F50454E000000100048475F4F504D
:10231000454E0000425F4F50454E0000525F434C17
:102320004F534500475F434C4F534500425F434C7A
:102330004F534500434C4F5345000000174800B52C
:10234000C16C87B041F00401C164C16C01F00401AB
:102350000591C16C41F00801C164C06C694600F090
:10236000080005904FF4E0600090002001900120EB
:102370000290032003900A48FEF7E8F80948006835
:10238000016841F0200101602520FEF74FFA032289
:1023900011462520FEF758FA07B000BD0010024094
:1023A000000C0048580000202DE9F041244D4FF466
:1023B0008066244C287877104FF4807870B13146CD
:1023C0002046FEF7D2F980B139462046FEF7CDF916
:1023D00058B141462046FEF7C8F930B13146204693
:1023E000FEF7C3F901281CD028E00A20FEF79CF86C
:1023F0000020287031462046FEF7B7F950B1394623
:102400002046FEF7B2F940B141462046FEF7ADF94D
:1024100028B113E00120BDE8F0810220FBE7032092
:10242000F9E739462046FEF7A0F9012806D14146D2
:102430002046FEF79AF9012800D128700020EAE72B
:1024400000000020000C004830B50F4887B0C16C78
:1024500041F01001C164C06C4FF4607400F01000D2
:1024600005900120CDE9004002900320074D039024
:1024700069462846FEF76AF8012221462846FEF7FB
:1024800079F907B030BD000000100240001000488C
:10249000FEF784F9FFF7ECFBFFF750FAFFF75CFA61
:1024A000FFF74CFFFFF7D0FFFFF7AAFEFFF7D0FEC4
:1024B000FAE7000003494878002801D0401E487020
:1024C00070470000140000204FF04070E1EE100A49
:1024D000704700000000000000000000010203043B
:1024E00006070809A0860100400D0300801A0600B7
:1024F00000350C0040420F0080841E0000093D00A2
:1025000000127A000024F40000366E010048E80151
:10251000006CDC0200000000010203043C250008FE
:102520000000002014000000C4010008502500082D
:10253000140000202C070000E0010008010000004A
:1025400001000000100000000000000000093D0034
:040000050800018965
:00000001FF
