:020000040800F2
:10000000100400209D010008190D0008650C00086F
:10001000150D0008850200084D0E000800000000C4
:100020000000000000000000000000001D0D00089E
:1000300089020008000000001B0D00081F0D0008C9
:10004000B7010008B7010008B7010008B7010008B0
:10005000B7010008B70100088B020008B7010008CB
:10006000B7010008B7010008B7010008B701000890
:10007000B7010008B7010008B7010008B701000880
:10008000B7010008B7010008B7010008B701000870
:10009000B7010008B7010008B7010008B701000860
:1000A000B7010008B7010008B7010008B701000850
:1000B000B7010008B7010008B7010008B701000840
:1000C000B7010008B7010008B7010008B701000830
:1000D000B7010008B7010008B7010008B701000820
:1000E000B7010008B7010008B7010008B701000810
:1000F000B7010008B7010008B7010008B701000800
:10010000B7010008B7010008B7010008B7010008EF
:10011000B7010008B7010008B7010008B7010008DF
:10012000B7010008B7010008B7010008B7010008CF
:10013000B7010008B7010008B7010008B7010008BF
:10014000B7010008B7010008B7010008B7010008AF
:10015000B7010008B7010008B7010008B70100089F
:10016000B7010008B7010008B7010008B70100088F
:10017000B7010008B7010008B7010008000000003F
:10018000B7010008B7010008DFF80CD000F068F8EC
:1001900000480047A90E00081004002006488047C8
:1001A00006480047FEE7FEE7FEE7FEE7FEE7FEE75C
:1001B000FEE7FEE7FEE7FEE7E90D0008890100081B
:1001C0002DE9F05F0546002092469B46884606468C
:1001D000814640241BE0284641464746224600F01F
:1001E0002FF853465A46C01A914110D3114618466B
:1001F000224600F016F82D1A67EB01084F462246FA
:100200000120002100F00DF817EB00094E41201EDF
:10021000A4F10104DFDC484631462A464346BDE8E6
:10022000F09F202A04DB203A00FA02F100207047F8
:100230009140C2F1200320FA03F319439040704724
:10024000202A04DB203A21FA02F00021704721FA2B
:1002500002F3D040C2F12002914008431946704792
:10026000064C074D06E0E06840F0010394E8070003
:1002700098471034AC42F6D3FFF78AFFF80F000816
:100280001810000800BFFEE77047704770B50446BD
:1002900000F01CF906462546681C10B10448007899
:1002A000054400BF00F012F9801BA842FAD370BDCC
:1002B0000C000020F8B502460B4600250024002063
:1002C0000021DCE0012606FA01F51E6806EA0504B5
:1002D000AC4273D15E68022E02D05E68122E13D13A
:1002E000CF0802F1200656F827004E07F70E0F261A
:1002F000BE40B0434F07FF0E1E69BE403043CF08DB
:1003000002F1200646F8270010684F000326BE4081
:10031000B0431E7906F003064F00BE403043106024
:100320005E68012E08D05E68022E05D05E68112E30
:1003300002D05E68122E13D190684F000326BE4093
:10034000B0434F00DE68BE403043906050680126E5
:100350008E40B0431E79C6F300168E403043506085
:10036000D0684F000326BE40B0434F009E68BE4099
:100370003043D0605E6806F08056B6F1805F7DD174
:1003800000BF00260096404E366846F480463E4F39
:100390003E603E46366806F48046009600BF00BFC9
:1003A0003A4E8F0856F827008E07370F0F26BE40AB
:1003B000B043374EB24202D1002624E05EE0354E13
:1003C000B24201D101261EE0334EB24201D10226D3
:1003D00019E0324EB24201D1032614E0304EB2424F
:1003E00001D104260FE02F4EB24201D105260AE0CA
:1003F0002D4EB24201D1062605E02C4EB24201D16B
:10040000072600E008268F073F0FBE4030431F4EEF
:100410008F0846F82700264E3068A0435E6806F431
:100420008036B6F5803F00D12043214E3060361D26
:100430003068A0435E6806F40036B6F5003F00D190
:1004400020431B4E361D3060361D3068A0435E6869
:1004500006F48016B6F5801F00D12043144E0836EE
:100460003060361D3068A0435E6806F40016B6F5AD
:10047000001F00D120430E4E0C363060491C10295D
:10048000FFF420AFF8BD00004438024008380140B6
:10049000000002400004024000080240000C02403C
:1004A000001002400014024000180240001C0240EC
:1004B000003C01400AB1816101E00B048361704797
:1004C00001480068000C7047002004E00148006803
:1004D00070470000040000200348006803490978C1
:1004E0000844014908607047040000200C00002007
:1004F00070B504460E4800784FF47A71B1FBF0F005
:100500000C490968B1FBF0F5284600F091FB08B1F1
:10051000012070BD102C07D200222146501E00F091
:100520000DF80548046001E00120F2E70020F0E743
:100530000C00002000000020080000202DE9F05FE2
:1005400080460D461646002700F082FC07463946D5
:100550002A46334601F00700C0F1070ABAF1040F3A
:1005600002D94FF0040A01E0C0F1070AD14600F1B8
:10057000040ABAF1070F02D24FF0000A01E0A0F11D
:10058000030AD4464FF0010A0AFA09FAAAF1010A4D
:100590000AEA020A0AFA0CFA4FF0010B0BFA0CFBFA
:1005A000ABF1010B0BEA030B4AEA0B042146404670
:1005B00000F056FCBDE8F09F70B504460D460CB93E
:1005C000012070BD5848006800F00F00A84209D211
:1005D00055490D700846006800F00F00A84201D090
:1005E0000120EEE7207800F0020002281DD12078DB
:1005F00000F00400042805D14C48006840F4E050A5
:100600004A490860207800F00800082805D14748CA
:10061000006840F46040454908604448006820F0A4
:10062000F000A168084341490860207800F001000B
:10063000A8B36068012807D13C4808380068C0F3B7
:100640004040B8B90120BCE76068022802D0606869
:10065000032807D1354808380068C0F3406048B91E
:100660000120AEE7314808380068C0F3400008B9FF
:100670000120A6E72D48006820F0030061680843C8
:100680002A490860FFF722FF064609E0FFF71EFF30
:10069000801B41F28831884202D9032091E707E0AC
:1006A0002248006800F00C006168B0EB810FEDD1CA
:1006B0001D48006800F00F00A84209D91A490D70C2
:1006C0000846006800F00F00A84201D0012078E73A
:1006D000207800F00400042807D11448006820F4B2
:1006E000E050E168084311490860207800F00800F4
:1006F000082808D10D48006820F46040216940EACC
:10070000C1000A49086000F017F808490968C1F3F8
:100710000311074A515CC840064908600F20FFF7E3
:10072000E7FE00204DE70000003C02400838024090
:10073000E00F0008000000202DE9F047002400250C
:100740000026A1462548006800F00C0020B10428CE
:1007500005D008283AD105E0DFF8849039E0DFF8C9
:10076000849036E01D48001F006800F03F041B48DD
:10077000001F006800F4800078B11A481749091F6B
:100780000968C1F38811A0FB0170014622460023CD
:100790003846FFF715FD05460EE011480F49091FC1
:1007A0000968C1F38811A0FB0170014622460023AD
:1007B0003846FFF705FD05460848001F0068C0F3EE
:1007C0000140401C4600B5FBF6F902E0DFF810904E
:1007D00000BF00BF4846BDE8F0870000083802406F
:1007E0000024F40040787D01F8B504460CB90120DE
:1007F000F8BD207800F00100002874D0F9480068A6
:1008000000F00C0004280DD0F648006800F00C0041
:10081000082813D1F348001F006800F48000B0F5E9
:10082000800F0BD1EF4808380068C0F34040002823
:1008300059D06068002856D10120D9E700BF606810
:10084000B0F5803F08D1E7480838006840F48030B0
:10085000E449083908601EE06068B0F5A02F0DD1AA
:10086000E0480838006840F48020DE490839086014
:100870000846006840F4803008600CE0D948083829
:10088000006820F48030D7490839086008460068BD
:1008900020F48020086000BF606890B1FFF716FE6A
:1008A000054606E0FFF712FE401B642801D903202D
:1008B0009EE7CC4808380068C0F340400028F1D0DB
:1008C00011E0FFF703FE054606E0FFF7FFFD401BC2
:1008D000642801D903208BE7C24808380068C0F3B8
:1008E00040400028F1D1207800F0020002285FD1BA
:1008F000BC48006800F00C0058B1BA48006800F02D
:100900000C0008281CD1B748001F006800F48000C4
:10091000B0B9B44808380068C0F3400020B1E068BE
:10092000012801D0012063E7AE480838006820F0B4
:10093000F800216940EAC100AA490839086037E097
:10094000E06800B30120A8490860FFF7BFFD054635
:1009500006E0FFF7BBFD401B022801D9032047E753
:10096000A04808380068C0F340000028F1D09D4836
:100970000838006820F0F800216940EAC100994970
:100980000839086014E0002097490860FFF79EFDD1
:10099000054606E0FFF79AFD401B022801D9032017
:1009A00026E7904808380068C0F340000028F1D1DD
:1009B000207800F0080008282CD16069A8B1012037
:1009C0008A490860FFF782FD054606E0FFF77EFDD5
:1009D000401B022801D903200AE782486C300068D6
:1009E000C0F340000028F1D014E000207F490860E7
:1009F000FFF76CFD054606E0FFF768FD401B022887
:100A000001D90320F4E677486C300068C0F3400059
:100A10000028F1D1207800F00400042870D10026CD
:100A200070483830006800F0805090B900BF002056
:100A300000906C483830006840F080506949383187
:100A400008600846006800F08050009000BF00BFBA
:100A500001266748006800F48070B0B964480068F7
:100A600040F4807062490860FFF730FD054606E0FB
:100A7000FFF72CFD401B022801D90320B8E65C4893
:100A8000006800F480700028F2D000BFA068012840
:100A900008D154486830006840F00100514968317D
:100AA00008601DE0A06805280DD14E486830006838
:100AB00040F004004B49683108600846006840F087
:100AC000010008600CE047486830006820F0010031
:100AD0004449683108600846006820F00400086056
:100AE00000BFA068A8B1FFF7F1FC054609E0FFF7D9
:100AF000EDFC401B41F28831884202D9032077E6A1
:100B000026E0384868300068C0F340000028EED086
:100B100013E0FFF7DBFC054608E0FFF7D7FC401BBE
:100B200041F28831884201D9032061E62D486830BE
:100B30000068C0F340000028EFD1012E07D12948FA
:100B40003830006820F0805026493831086000BFF6
:100B5000A069B8B32348006800F00C0008285ED0F4
:100B6000A069022846D100201F490866FFF7AEFCA5
:100B7000054606E0FFF7AAFC401B022801D9032026
:100B800036E6184808380068C0F340600028F1D104
:100B9000D4E907010843616A40EA81110122A06A91
:100BA000C2EB500041EA00412C20005D41EA0060A8
:100BB0000C49091F086001200B490866FFF786FCF5
:100BC000054607E02DE0FFF781FC401B022801D914
:100BD00003200DE6034808380068C0F34060002891
:100BE000F1D01EE00838024000004742800E474224
:100BF0000070004000200C490866FFF767FC0546BE
:100C000006E0FFF763FC401B022801D90320EFE553
:100C100006480068C0F340600028F2D101E00120DE
:100C2000E6E50020E4E5000000004742003802400D
:100C300070B504462546681EB0F1807F01D30120BF
:100C40000FE0681E4FF0E02148610F214FF0FF30A8
:100C500000F006F900204FF0E021886107200861CC
:100C6000002070BD00BFFEE700B587B000BF0020C8
:100C700001902648006840F020002449086008469A
:100C8000006800F02000019000BF00BF00BF0020FE
:100C900001900846006840F020000860084600689F
:100CA00000F02000019000BF00BF00BF00200190B5
:100CB0000846006840F0200008600846006800F020
:100CC0002000019000BF00BF40200290012003904F
:100CD00004900320059002A90D48FFF7EBFA80204D
:100CE000029002A90A48FFF7E5FA4FF480700290DB
:100CF00002A90748FFF7DEFA4020054918310860CD
:100D0000802008604000086007B000BD3038024015
:100D10000014024000BFFEE770477047704710B5EF
:100D2000FFF7DAFB10BD000000B593B000BF002054
:100D300001902A48006840F0805028490860084621
:100D4000006800F08050019000BF00BF00BF00208D
:100D500001902348006840F480402149086008461B
:100D6000006800F48040019000BF00BF01200290A5
:100D700000040390022008904105099119210A916D
:100D80004FF4A8710B9102210C9107210D9102A83B
:100D9000FFF72AFD08B100BFFEE70F200E900220EA
:100DA0000F90002010904FF4A05011904FF48050FD
:100DB000129005210EA8FFF7FFFB08B100BFFEE768
:100DC000FFF77EFB41F20101884205D1054800682A
:100DD00040F480700349086013B000BD4038024001
:100DE00000700040003C02401448006840F470006D
:100DF000124908601248006840F00100104908607C
:100E000000200F49083108600D4800680D4908406E
:100E10000B4908600C48091D0860081F006820F491
:100E20008020091F0860002005490C3108604FF040
:100E300000600249803908607047000088ED00E0DA
:100E400000380240FFFFF6FE1030002400BFFEE72E
:100E500002480068C0F30220704700000CED00E07B
:100E600010B5002804DB0A07130E054A135406E0E8
:100E70000A07140E034A00F00F031B1FD45410BDC1
:100E800000E400E018ED00E002E008C8121F08C10D
:100E9000002AFAD170477047002001E001C1121FFB
:100EA000002AFBD170470000FFF73EFFFFF7DCFE92
:100EB00092E0002240214948FFF7FCFA4FF47A7093
:100EC000FFF7E4F9012240214448FFF7F3FA4FF419
:100ED0007A70FFF7DBF9002280214048FFF7EAFA39
:100EE0004FF47A70FFF7D2F9012280213B48FFF7D7
:100EF000E1FA00224FF480713848FFF7DBFA4FF433
:100F00007A70FFF7C3F9012211023448FFF7D2FAD1
:100F10004FF480003149183108608020086040009B
:100F200008604FF47A70FFF7B1F940202B4918316F
:100F3000086040040860C01308604FF47A70FFF73F
:100F4000A5F9402025491831086080200860400438
:100F500008604FF47A70FFF799F94FF480001F4949
:100F60001831086040000860C01308604FF47A70C0
:100F7000FFF78CF94FF48000184918310860802081
:100F80000860400408604FF47A70FFF77FF9402052
:100F900012491831086040040860400008604FF4AE
:100FA0007A70FFF773F94FF480000C49183108602C
:100FB00040000860400008604FF47A70FFF766F95F
:100FC0004020064918310860802008604000086011
:100FD0004FF47A70FFF75AF96BE7000000140240F3
:100FE00000000000000000000102030406070809D9
:100FF0000000000001020304181000080000002097
:1010000010000000880E00082810000810000020C2
:1010100000040000980E00080024F4000000000006
:081020001000000001000000B7
:040000050800018965
:00000001FF
