:020000040800F2
:10000000C80400209D010008ED1000083910000808
:10001000E910000885020008D91600080000000059
:10002000000000000000000000000000F1100008C7
:10003000B502000800000000EF100008F3100008EF
:10004000B7010008B7010008B7010008B7010008B0
:10005000B7010008B701000895030008B7010008C0
:10006000B7010008B7010008B7010008B701000890
:10007000B7010008B7010008B7010008B701000880
:10008000B7010008B7010008B7010008B701000870
:10009000B7010008B7010008B7010008B701000860
:1000A000B7010008B7010008B7010008B701000850
:1000B000B7010008B7010008B7010008B701000840
:1000C000B7010008B7010008B7010008B701000830
:1000D000B7010008B7010008B7010008B701000820
:1000E000B7010008B7010008B7010008B701000810
:1000F000B7010008B7010008B7010008B701000800
:10010000B7010008B7010008B7010008B7010008EF
:10011000B7010008B7010008B7010008B7010008DF
:10012000B7010008B7010008B7010008B7010008CF
:10013000B7010008B7010008B7010008B7010008BF
:10014000B7010008B7010008B7010008B7010008AF
:10015000B7010008B7010008B7010008B70100089F
:10016000B7010008B7010008B7010008B70100088F
:10017000B7010008B7010008B7010008000000003F
:10018000B7010008B7010008DFF80CD000F068F8EC
:100190000048004781170008C8040020064880472F
:1001A00006480047FEE7FEE7FEE7FEE7FEE7FEE75C
:1001B000FEE7FEE7FEE7FEE7C1110008890100083F
:1001C0002DE9F05F0546002092469B46884606468C
:1001D000814640241BE0284641464746224600F01F
:1001E0002FF853465A46C01A914110D3114618466B
:1001F000224600F016F82D1A67EB01084F462246FA
:100200000120002100F00DF817EB00094E41201EDF
:10021000A4F10104DFDC484631462A464346BDE8E6
:10022000F09F202A04DB203A00FA02F100207047F8
:100230009140C2F1200320FA03F319439040704724
:10024000202A04DB203A21FA02F00021704721FA2B
:1002500002F3D040C2F12002914008431946704792
:10026000064C074D06E0E06840F0010394E8070003
:1002700098471034AC42F6D3FFF78AFF28180008DD
:100280004818000800BFFEE730B50468246824F46D
:10029000802405682C60046863608468402C04D165
:1002A0000468A2600468E16003E00468A160046877
:1002B000E26030BD7047000000B587B000BF00208D
:1002C00001902B48006840F0010029490860084669
:1002D000006800F00100019000BF00BF00BF0020D7
:1002E00001900846006840F0010008600846006878
:1002F00000F00100019000BF00BF00BF002001908E
:100300001B481430006840F010001949143108608F
:100310000846006800F01000019000BF00BF4815BB
:1003200002900220039001200490032005900720F2
:10033000069002A90F4800F091F84FF480600290F7
:100340000720069002A90B4800F088F80A480B49DC
:1003500008604FF4E1304860002108488160C160C6
:10036000016181610C21416100F071FD07B000BDA8
:10037000303802400000024000100140840000209C
:1003800001B502E00098401E009000980028F9D1C5
:1003900008BD00000748006800F0010040B10648B1
:1003A000006880F0400004490860012001490860AD
:1003B00070470000143C0140141402402DE9F0473E
:1003C00004460D4616461F464FF00008D4F85890D4
:1003D00000BF94F83400012802D10220BDE8F08764
:1003E000012084F8340000BF94F8350001282BD197
:1003F000022084F83500002060653B4632462946DD
:100400002046FFF741FF94F85C103F208840C9F870
:1004100008002068006840F0160021680860206825
:10042000406940F0800021684861206C28B1206854
:10043000006840F00800216808602068006840F00B
:1004400001002168086006E000BF002084F8340045
:1004500000BF4FF002084046C0E70000F8B5024672
:100460000B460025002400200021DCE0012606FACE
:1004700001F51E6806EA0504AC4273D15E68022EDF
:1004800002D05E68122E13D1CF0802F1200656F872
:1004900027004E07F70E0F26BE40B0434F07FF0E52
:1004A0001E69BE403043CF0802F1200646F82700FF
:1004B00010684F000326BE40B0431E7906F00306C5
:1004C0004F00BE40304310605E68012E08D05E6869
:1004D000022E05D05E68112E02D05E68122E13D156
:1004E00090684F000326BE40B0434F00DE68BE4018
:1004F00030439060506801268E40B0431E79C6F3A9
:1005000000168E4030435060D0684F000326BE4036
:10051000B0434F009E68BE403043D0605E6806F036
:100520008056B6F1805F7DD100BF00260096404E18
:10053000366846F480463E4F3E603E46366806F4D6
:100540008046009600BF00BF3A4E8F0856F827003D
:100550008E07370F0F26BE40B043374EB24202D14E
:10056000002624E05EE0354EB24201D101261EE0B5
:10057000334EB24201D1022619E0324EB24201D1CD
:10058000032614E0304EB24201D104260FE02F4E74
:10059000B24201D105260AE02D4EB24201D1062613
:1005A00005E02C4EB24201D1072600E008268F0755
:1005B0003F0FBE4030431F4E8F0846F82700264E9F
:1005C0003068A0435E6806F48036B6F5803F00D1FF
:1005D0002043214E3060361D3068A0435E6806F42B
:1005E0000036B6F5003F00D120431B4E361D30606B
:1005F000361D3068A0435E6806F48016B6F5801F8D
:1006000000D12043144E08363060361D3068A043B8
:100610005E6806F40016B6F5001F00D120430E4EAA
:100620000C363060491C1029FFF420AFF8BD0000E3
:1006300044380240083801400000024000040240F3
:1006400000080240000C024000100240001402406A
:1006500000180240001C0240003C014001480068B4
:10066000000C7047002004E001480068704700005B
:100670000400002003480068034909780844014940
:1006800008607047040000200C00002070B504468C
:100690000E4800784FF47A71B1FBF0F00C4909680C
:1006A000B1FBF0F5284600F0B7FB08B1012070BDA2
:1006B000102C07D200222146501E00F00DF80548EC
:1006C000046001E00120F2E70020F0E70C000020C8
:1006D00000000020080000202DE9F05F80460D4654
:1006E0001646002701F002F8074639462A463346E7
:1006F00001F00700C0F1070ABAF1040F02D94FF068
:10070000040A01E0C0F1070AD14600F1040ABAF177
:10071000070F02D24FF0000A01E0A0F1030AD4460D
:100720004FF0010A0AFA09FAAAF1010A0AEA020AD2
:100730000AFA0CFA4FF0010B0BFA0CFBABF1010BB0
:100740000BEA030B4AEA0B042146404600F0D6FFB1
:10075000BDE8F09F70B504460D460CB9012070BD90
:100760005848006800F00F00A84209D255490D70A2
:100770000846006800F00F00A84201D00120EEE713
:10078000207800F0020002281DD1207800F004003B
:10079000042805D14C48006840F4E0504A490860FC
:1007A000207800F00800082805D14748006840F488
:1007B0006040454908604448006820F0F000A168A6
:1007C000084341490860207800F00100A8B3606840
:1007D000012807D13C4808380068C0F34040B8B948
:1007E0000120BCE76068022802D06068032807D1B6
:1007F000354808380068C0F3406048B90120AEE7CA
:10080000314808380068C0F3400008B90120A6E765
:100810002D48006820F00300616808432A490860F9
:10082000FFF722FF064609E0FFF71EFF801B41F29B
:100830008831884202D9032091E707E02248006806
:1008400000F00C006168B0EB810FEDD11D4800682D
:1008500000F00F00A84209D91A490D700846006837
:1008600000F00F00A84201D0012078E7207800F0C6
:100870000400042807D11448006820F4E050E1681F
:10088000084311490860207800F00800082808D1C2
:100890000D48006820F46040216940EAC1000A491F
:1008A000086000F03DF808490968C1F30311074AE0
:1008B000515CC840064908600F20FFF7E7FE0020A2
:1008C0004DE70000003C02400838024010180008C4
:1008D0000000002001480068704700000000002070
:1008E00000B5FFF7F7FF04490968C1F38221034A05
:1008F000515CC84000BD00000838024020180008C4
:1009000000B5FFF7E7FF04490968C1F34231034A24
:10091000515CC84000BD00000838024020180008A3
:100920002DE9F047002400250026A146254800684F
:1009300000F00C0020B1042805D008283AD105E0C9
:10094000DFF8849039E0DFF8849036E01D48001F1E
:10095000006800F03F041B48001F006800F480009E
:1009600078B11A481749091F0968C1F38811A0FB1B
:1009700001700146224600233846FFF721FC054658
:100980000EE011480F49091F0968C1F38811A0FB47
:1009900001700146224600233846FFF711FC054648
:1009A0000848001F0068C0F30140401C4600B5FB2A
:1009B000F6F902E0DFF8109000BF00BF4846BDE83E
:1009C000F0870000083802400024F40040787D01E0
:1009D000F8B504460CB90120F8BD207800F00100FC
:1009E000002874D0F948006800F00C0004280DD0ED
:1009F000F648006800F00C00082813D1F348001FE7
:100A0000006800F48000B0F5800F0BD1EF48083883
:100A10000068C0F34040002859D06068002856D1D3
:100A20000120D9E700BF6068B0F5803F08D1E748F2
:100A30000838006840F48030E449083908601EE056
:100A40006068B0F5A02F0DD1E0480838006840F488
:100A50008020DE49083908600846006840F480308C
:100A600008600CE0D9480838006820F48030D74985
:100A7000083908600846006820F48020086000BF3C
:100A8000606890B1FFF7F0FD054606E0FFF7ECFD6A
:100A9000401B642801D903209EE7CC480838006831
:100AA000C0F340400028F1D011E0FFF7DDFD05461E
:100AB00006E0FFF7D9FD401B642801D903208BE72E
:100AC000C24808380068C0F340400028F1D12078BF
:100AD00000F0020002285FD1BC48006800F00C0062
:100AE00058B1BA48006800F00C0008281CD1B7487B
:100AF000001F006800F48000B0B9B44808380068EE
:100B0000C0F3400020B1E068012801D0012063E774
:100B1000AE480838006820F0F800216940EAC100BA
:100B2000AA490839086037E0E06800B30120A84905
:100B30000860FFF799FD054606E0FFF795FD401BAD
:100B4000022801D9032047E7A04808380068C0F30D
:100B500040000028F1D09D480838006820F0F800D7
:100B6000216940EAC10099490839086014E0002071
:100B700097490860FFF778FD054606E0FFF774FD2A
:100B8000401B022801D9032026E790480838006856
:100B9000C0F340000028F1D1207800F008000828B8
:100BA0002CD16069A8B101208A490860FFF75CFD7B
:100BB000054606E0FFF758FD401B022801D9032037
:100BC0000AE782486C300068C0F340000028F1D08A
:100BD00014E000207F490860FFF746FD054606E067
:100BE000FFF742FD401B022801D90320F4E67748B5
:100BF0006C300068C0F340000028F1D1207800F08C
:100C00000400042870D1002670483830006800F0D5
:100C1000805090B900BF002000906C4838300068C8
:100C200040F080506949383108600846006800F09B
:100C30008050009000BF00BF01266748006800F4A4
:100C40008070B0B96448006840F480706249086000
:100C5000FFF70AFD054606E0FFF706FD401B0228E8
:100C600001D90320B8E65C48006800F480700028D1
:100C7000F2D000BFA068012808D15448683000684D
:100C800040F001005149683108601DE0A068052866
:100C90000DD14E486830006840F004004B4968317F
:100CA00008600846006840F0010008600CE0474812
:100CB0006830006820F00100444968310860084647
:100CC000006820F00400086000BFA068A8B1FFF72A
:100CD000CBFC054609E0FFF7C7FC401B41F2883119
:100CE000884202D9032077E626E038486830006859
:100CF000C0F340000028EED013E0FFF7B5FC054636
:100D000008E0FFF7B1FC401B41F28831884201D96D
:100D1000032061E62D4868300068C0F340000028D9
:100D2000EFD1012E07D129483830006820F08050DB
:100D300026493831086000BFA069B8B3234800686D
:100D400000F00C0008285ED0A069022846D10020DF
:100D50001F490866FFF788FC054606E0FFF784FC9C
:100D6000401B022801D9032036E6184808380068DD
:100D7000C0F340600028F1D1D4E907010843616A5B
:100D800040EA81110122A06AC2EB500041EA004111
:100D90002C20005D41EA00600C49091F0860012019
:100DA0000B490866FFF760FC054607E02DE0FFF7FA
:100DB0005BFC401B022801D903200DE603480838DC
:100DC0000068C0F340600028F1D01EE008380240FF
:100DD00000004742800E47420070004000200C494E
:100DE0000866FFF741FC054606E0FFF73DFC401BA7
:100DF000022801D90320EFE506480068C0F34060EF
:100E00000028F2D101E00120E6E50020E4E5000041
:100E1000000047420038024070B504462546681E6F
:100E2000B0F1807F01D301200FE0681E4FF0E02178
:100E300048610F214FF0FF3000F060FC00204FF0C0
:100E4000E021886107200861002070BD704710B55F
:100E500004460CB9012010BDA06900B100E000BF3C
:100E600094F8390028B9002084F83800204600F0B2
:100E700027F8242084F839002068C06820F4005046
:100E80002168C860204600F03DFA2068006920F41F
:100E90009040216808612068406920F02A0021689C
:100EA00048612068C06840F400502168C860002094
:100EB000E063202084F8390084F83A000020CAE773
:100EC00070472DE9F84304460D4616461F464FF07D
:100ED000000994F8390020285CD105B116B9012029
:100EE000BDE8F88300BF94F83800012801D1022042
:100EF000F6E7012084F8380000BF0020E0632120DD
:100F000084F83900FFF7B0FB8146A684E6842BE025
:100F1000E08C401EE084A068B0F5805F16D14B469F
:100F2000002280212046009700F0A0FB08B103209A
:100F3000D6E7A846B8F80000C0F30800216848606A
:100F4000206908B9AD1C0FE06D1C0DE04B46002276
:100F500080212046009700F089FB08B10320BFE7FD
:100F600015F8010B21684860E08C0028D0D14B4671
:100F7000002240212046009700F078FB08B10320B2
:100F8000AEE7202084F8390000BF002084F8380044
:100F900000BFA5E70220A3E7F7B50446154694F87D
:100FA000390020283DD1019800B10DB90120FEBDC6
:100FB00000BF94F83800012801D10220F7E7012092
:100FC00084F8380000BF01982062A584E5840020E1
:100FD000E063212084F839001348216BC86313486B
:100FE000216B08641248216BC8640020216B0865DE
:100FF00001AE23681A1D31682B46206BFFF7DEF91E
:101000006FF040002168086000BF002084F83800BD
:1010100000BF2068406940F08000216848610020DE
:10102000C5E70220C3E700008D120008C3120008C4
:101030003D1200087047704700BFFEE700B587B05B
:1010400000BF002001902648006840F0200024499D
:1010500008600846006800F02000019000BF00BF53
:1010600000BF002001900846006840F020000860A2
:101070000846006800F02000019000BF00BF00BFDC
:10108000002001900846006840F0200008600846F3
:10109000006800F02000019000BF00BF40200290D7
:1010A0000120039004900320059002A90D48FFF74A
:1010B000D5F98020029002A90A48FFF7CFF94FF432
:1010C0008070029002A90748FFF7C8F9402005493F
:1010D00018310860802008604000086007B000BD3B
:1010E000303802400014024000BFFEE770477047EE
:1010F000704710B5FFF7BEFA00F094F810BD00007D
:1011000000B593B000BF002001902A48006840F06D
:101110008050284908600846006800F0805001901F
:1011200000BF00BF00BF002001902348006840F4CA
:101130008040214908600846006800F48040019022
:1011400000BF00BF0120029000040390022008901D
:101150004105099119210A914FF4A8710B910221BF
:101160000C9107210D9102A8FFF732FC08B100BFD6
:10117000FEE70F200E9002200F90002010904FF4F9
:10118000A05011904FF48050129005210EA8FFF747
:10119000E1FA08B100BFFEE7FFF760FA41F2010192
:1011A000884205D10548006840F480700349086012
:1011B00013B000BD4038024000700040003C0240C7
:1011C0001448006840F47000124908601248006832
:1011D00040F001001049086000200F490831086004
:1011E0000D4800680D4908400B4908600C48091D6E
:1011F0000860081F006820F48020091F0860002094
:1012000005490C3108604FF00060024980390860E0
:101210007047000088ED00E000380240FFFFF6FE56
:10122000103000240448006820B103480068401EC4
:1012300001490860704700001000002070B50646A4
:101240000025B46B20684069C0F3C01594F83900DC
:10125000212805D125B10020E084204600F048F87F
:1012600020684069C0F3801594F83A00222805D11F
:1012700025B10020E085204600F02AF8E06B40F020
:101280001000E0632046FFF7E1FD70BD70B5054634
:10129000AC6B2868006800F4807070B90020E084AE
:1012A0002068406920F08000216848612068C0689B
:1012B00040F040002168C86002E02046FFF7BAFE17
:1012C00070BD70B50446A56B2846FFF7B4FE70BD2F
:1012D0000168C96821F490710268D16001684969A8
:1012E00021F0010102685161202180F83A10704715
:1012F0000168C96821F0C0010268D160202180F82E
:10130000391070472DE9F04104462068006920F447
:101310004050E1680843216808612169A0680843DA
:1013200061690843E16940EA01052068C06849F243
:101330000C61884328432168C8602068406920F414
:101340004070A169084321684861E069B0F5004F29
:101350007ED1C4492068884203D0C34920688842AE
:101360005DD1FFF7CDFA00EBC00101EB0010616821
:101370004900B0FBF1F06421B0FBF1F00601FFF78A
:10138000BFFA00EBC00101EB001061684900B0FB3F
:10139000F1F7FFF7B5FA00EBC00101EB001061684F
:1013A0004900B0FBF1F06421B0FBF1F000EBC001AB
:1013B00001EB0010A7EB8000322101EBC00064219B
:1013C000B0FBF1F000F0F80006EB4006FFF798FAEA
:1013D00000EBC00101EB001061684900B0FBF1F7C0
:1013E000FFF78EFA00EBC00101EB001061684900C5
:1013F000B0FBF1F06421B0FBF1F000EBC00101EBB8
:101400000010A7EB8000322101EBC0006421B0FB8B
:10141000F1F000F0070030442168886020E1FFF718
:101420005FFA00EBC00101EB001061684900B0FBFE
:10143000F1F06421B0FBF1F00601FFF751FA00EB87
:10144000C00101EB001061684900B0FBF1F700E05A
:1014500045E0FFF745FA00EBC00101EB00106168C1
:101460004900B0FBF1F06421B0FBF1F000EBC001EA
:1014700001EB0010A7EB8000322101EBC0006421DA
:10148000B0FBF1F000F0F80006EB4006FFF728FA99
:1014900000EBC00101EB001061684900B0FBF1F7FF
:1014A000FFF71EFA00EBC00101EB00106168490074
:1014B000B0FBF1F06421B0FBF1F000EBC00101EBF7
:1014C0000010A7EB8000322101EBC0006421B0FBCB
:1014D000F1F000F00700304421688860C0E0614905
:1014E0002068884203D06049206888425CD1FFF7B9
:1014F00007FA00EBC00101EB001061688900B0FB46
:10150000F1F6FFF7FDF900EBC00101EB0010616897
:101510008900B0FBF1F06421B0FBF1F000EBC001F9
:1015200001EB0010A6EB8000322101EB00106421DA
:10153000B0FBF1F000F0F006FFF7E2F900EBC001BC
:1015400001EB001061688900B0FBF1F06421B0FB91
:10155000F1F006EB0016FFF7D3F900EBC00101EB49
:10156000001061688900B0FBF1F7FFF7C9F900EBE3
:10157000C00101EB001061688900B0FBF1F064214B
:10158000B0FBF1F000EBC00101EB0010A7EB800015
:10159000322101EB00106421B0FBF1F000F00F00EC
:1015A0003044216888605BE0FFF79AF900EBC001E6
:1015B00001EB001061688900B0FBF1F6FFF790F9CC
:1015C00000EBC00101EB001061688900B0FBF1F095
:1015D0006421B0FBF1F000EBC00101EB0010A6EBC1
:1015E0008000322101EB00106421B0FBF1F000F02B
:1015F000F006FFF775F900EBC00101EB0010616820
:101600008900B0FBF1F06421B0FBF1F006EB0016AD
:10161000FFF766F900EBC00101EB0010616889007B
:10162000B0FBF1F7FFF75CF900EBC00101EB001034
:1016300061688900B0FBF1F06421B0FBF1F000EBD0
:10164000C00101EB0010A7EB8000322101EB00107C
:101650006421B0FBF1F000F00F0030442168886095
:10166000BDE8F08100100140001401402DE9F04177
:1016700004460D4617469846069E21E0701CF8B1B8
:101680002EB1FEF7F1FFA0EB0800B04218D9206898
:10169000C06820F4D0702168C8602068406920F0DC
:1016A000010021684861202084F8390084F83A005C
:1016B00000BF002084F8380000BF0320BDE8F0819F
:1016C000206800682840A84201D1012000E00020E5
:1016D000B842D3D00020F1E700BFFEE7014A02493B
:1016E00000F02FB8651700081400002002480068B9
:1016F000C0F30220704700000CED00E010B5002898
:1017000004DB0A07130E054A135406E00A07140EF9
:10171000034A00F00F031B1FD45410BD00E400E087
:1017200018ED00E002E008C8121F08C1002AFAD133
:1017300070477047002001E001C1121F002AFBD151
:1017400070472DE9F04116460F460446002503E098
:101750003946B047641C6D1C20780028F8D1284613
:10176000BDE8F08113B50C464FF47A730122694647
:101770000248FFF7A6FB00981CBD00008400002073
:1017800010B5FFF7BDFCFFF759FC4FF48000054989
:101790000860802008604004086000F005F8002020
:1017A00010BD000018140240FEF786FD0DA0FFF7E3
:1017B00095FF002404E0412011490855601C84B2C3
:1017C0000A2CF8DB0A220E490E48FFF7E5FB08E079
:1017D0000D48006880F040000B4908600B48FEF798
:1017E000CFFDF5E70D0A2055534152543120444DA9
:1017F0004120545820B2E2CAD4200D0A0000000053
:10180000180000208400002014140240FFFF0F0085
:1018100000000000000000000102030406070809A0
:101820000000000001020304481800080000002026
:101830001800000024170008601800081800002095
:10184000B0040000341700080024F4000000000079
:101850001000000001000000000000000000000077
:040000050800018965
:00000001FF
