:020000040002F8
:10600000C0650020C1630200C9630200CB630200C7
:10601000CD630200CF630200D163020000000000E4
:10602000000000000000000000000000D363020038
:10603000D563020000000000D7630200D9630200AC
:106040002D8F0200DB63020099920200DB630200E5
:10605000DB630200DB630200898E0200DB63020067
:10606000DB630200DB630200DB630200DB63020030
:10607000DB630200858F0200DB630200DB6302004A
:10608000DB630200AD8F0200DB630200DB63020012
:10609000DB630200DB630200BD8F0200DB630200F2
:1060A000DB630200DB630200DB630200DB630200F0
:1060B000DB630200DB630200000000000000000060
:1060C000DB630200DB630200DB630200DB630200D0
:1060D000DB630200DB630200DB6302000000000000
:1060E00000000000000000000000000000000000B0
:1060F00000000000000000000000000000000000A0
:10610000000000000000000000000000000000008F
:10611000000000000000000000000000000000007F
:10612000000000000000000000000000000000006F
:10613000000000000000000000000000000000005F
:10614000000000000000000000000000000000004F
:10615000000000000000000000000000000000003F
:10616000000000000000000000000000000000002F
:10617000000000000000000000000000000000001F
:10618000000000000000000000000000000000000F
:1061900000000000000000000000000000000000FF
:1061A00000000000000000000000000000000000EF
:1061B00000000000000000000000000000000000DF
:1061C00000000000000000000000000000000000CF
:1061D00000000000000000000000000000000000BF
:1061E00000000000000000000000000000000000AF
:1061F000000000000000000000000000000000009F
:10620000DFF80CD000F0F6FF00480047F1D702009D
:10621000C065002030B450E8012F93B2C4892344F4
:106220008489A34228BF1B1B0489A34202BFBFF37A
:106230002F8F002007E0C3EA020340E80134002C5E
:10624000E9D14FF001000A6030BC704750E8012FDF
:10625000C2EA024240E801210029F7D1704730B478
:1062600050E8022F1FFAA2F3C488A34202BFBFF373
:106270002F8F00200DE0C48923448489A34228BFC6
:106280001B1BC2EA034340E80234002CE8D14FF064
:1062900001000A6030BC704750E8022FC2EA224277
:1062A00040E802210029F7D17047034653E8022F46
:1062B000D988B2EB324F4FF0000017BF92B241EADB
:1062C000014142EA014104E05A68B2EB324F08BF93
:1062D000012043E80212002AE8D1704730B4044696
:1062E00054E8000F0D4644E80053002BF8D1156028
:1062F00030BC704730B4044654E8000F40EA010552
:1063000044E80053002BF7D1156030BC704730B41F
:10631000044654E8000F00EA010544E80053002B4E
:10632000F7D1156030BC704730B4044654E8000F14
:1063300080EA010544E80053002BF7D1156030BC1A
:10634000704730B4044654E8000F00EB010544E800
:106350000053002BF7D1156030BC704730B40446B1
:1063600054E8000FA0EB010544E80053002BF7D1DF
:10637000156030BC704770B404464FF0000054E81C
:10638000006F0D68AE4207BF44E80023012044E8D7
:1063900000630E60002B1CBF0020F0E770BC70474C
:1063A00030B4044654E8000F88422CBF451A054615
:1063B00044E80053002BF5D1156030BC7047000055
:1063C0000648804706480047FEE7FEE7FEE7FEE78F
:1063D000FEE7FEE7FEE7FEE7FEE7FEE7C18F02000D
:1063E0000162020070B491E87800B2E802105B1814
:1063F00054EB0C04B2E802104D4156EB0C0680E859
:1064000078008041013070BC704770B491E878002A
:10641000B2E802105B1A74EB0C04B2E802108D4172
:1064200076EB0C0680E878008041404270BC7047F3
:106430002DE9F00791E8F807B2E802105B1854EB79
:106440000C04B2E802104D4156EB0C06B2E8021003
:106450004F4158EB0C08B2E8021059EB01095AEB16
:106460000C0A80E8F80780410130BDE8F00770476A
:106470002DE9F00791E8F807B2E802105B1A74EB17
:106480000C04B2E802108D4176EB0C06B2E8021063
:106490008F4178EB0C08B2E8021079EB01097AEB36
:1064A0000C0A80E8F80780414042BDE8F0077047D9
:1064B0002DE9F007524290E87800B1E880071740D4
:1064C000DB1918EA020854EB080419EA020955EB33
:1064D00009051AEA020A56EB0A0678C090E8780025
:1064E000B1E8800717407B4118EA020854EB080422
:1064F00019EA020955EB09051AEA020A56EB0A06DF
:1065000078C080410130BDE8F00770472DE9F00701
:10651000524290E87800B1E880071740DB1B18EA88
:10652000020874EB080419EA020975EB09051AEA76
:10653000020A76EB0A0678C090E87800B1E8800796
:106540001740BB4118EA020874EB080419EA020973
:1065500075EB09051AEA020A76EB0A0678C0804153
:106560004042BDE8F007704790E8300091E8C00075
:10657000A31B1340E41AF618EB1B1340ED1AFF1887
:1065800030C0C0C17047F0B55242FFF7EDFFFFF7D2
:10659000EBFFFFF7E9FFFFF7E7FFF0BD2DE9F0079D
:1065A0003AC91668A1FB069A4FF0000CE3FB06AC53
:1065B0004FF00007E4FB06C74FF00008E5FB067844
:1065C00040F8049B56684FF00009E1FB06A9E3FB85
:1065D00066C9E4FB6679E5FB668940F804AB96681A
:1065E0004FF0000AE1FB06CAE3FB667AE4FB668A29
:1065F000E5FB669A40F804CBD6684FF0000CE1FB4F
:10660000067CE3FB668CE4FB669CE5FB66AC80E8FD
:106610008017BDE8F00770470A462DE9F04F40ECBF
:10662000171A92EC080A1EC910EE100AA1FB007896
:106630004FF00009E2FB00894FF0000AE3FB009AEB
:106640004FF0000BE4FB00AB12EE100A4FF0000C11
:10665000E1FB00BC4FF0000EE2FB00CE4FF0000566
:10666000E3FB00E54FF00006E4FB005604EE107A71
:1066700010EE900A4FF00007E1FB0087E2FB609705
:10668000E3FB60A7E4FB60B712EE900AE1FB60C792
:10669000E2FB60E7E3FB6057E4FB606704EE908A8F
:1066A00011EE100A4FF00008E1FB0098E2FB60A831
:1066B000E3FB60B8E4FB60C813EE100AE1FB60E89E
:1066C000E2FB6058E3FB6068E4FB607805EE109A3B
:1066D00011EE900A4FF00009E1FB00A9E2FB60B95E
:1066E000E3FB60C9E4FB60E913EE900AE1FB60594B
:1066F000E2FB6069E3FB6079E4FB608905EE90AA48
:1067000017EE101A01F110011EC910EE100A4FF019
:10671000000AE1FB00BAE2FB60CAE3FB60EAE4FBCB
:10672000605A12EE100AE1FB606AE2FB607AE3FB5A
:10673000608AE4FB609A06EE10BA10EE900A4FF001
:10674000000BE1FB00CBE2FB60EBE3FB605BE4FBF7
:10675000606B12EE900AE1FB607BE2FB608BE3FB77
:10676000609BE4FB60AB06EE90CA11EE100A4FF09E
:10677000000CE1FB00ECE2FB605CE3FB606CE4FB23
:10678000607C13EE100AE1FB608CE2FB609CE3FB93
:1067900060ACE4FB60BC07EE10EA11EE900A4FF02B
:1067A000000EE1FB005EE2FB606EE3FB607EE4FB5B
:1067B000608E13EE900AE1FB609EE2FB60AEE3FBAD
:1067C00060BEE4FB60CE17EE900AA0EC074A80E8BA
:1067D000E05FBDE8F08F00BF30B44FF0000310F869
:1067E000014B11F8015B013A84EA050443EA040312
:1067F000F5D1A3F101034FEAD37030BC70474FF0DD
:10680000000310F8012B013943EA0203F9D1A3F187
:1068100001034FEAD370704711F8013B00F8013BC8
:10682000013AF9D17047002200F8012B0139FBD160
:10683000704700BF2DE9F00791E8F807B2E80210B1
:106840005B1854EB0C04B2E802104D4156EB0C06F9
:10685000B2E802104F4158EB0C08B2E8021059EBB5
:1068600001095AEB0C0A8941B3F1FF3374F1FF348B
:1068700075F1FF3576F1000677F1000778F1000831
:1068800079F101097AF1FF3A51F100014A425B18AE
:106890004C414D4156F1000657F1000758F10008F0
:1068A00059EB02095AEB010A80E8F807BDE8F00746
:1068B00070472DE9F00791E8F807B2E802105B1A7B
:1068C00074EB0C04B2E802108D4176EB0C06B2E8D2
:1068D00002108F4178EB0C08B2E8021079EB010945
:1068E0007AEB0C0A89414A425B184C414D4156F102
:1068F000000657F1000758F1000859EB02095AEB5E
:10690000010A80E8F807BDE8F00770470A462DE95C
:10691000F04F40EC171A92EC080A1EC910EE100A4C
:10692000A1FB00784FF00009E2FB00894FF0000A5C
:10693000E3FB009A4FF0000BE4FB00AB12EE100AF1
:106940004FF0000CE1FB00BC4FF0000EE2FB00CE6C
:106950004FF00005E3FB00E54FF00006E4FB0056B6
:1069600004EE107A10EE900A4FF00007E1FB00876A
:10697000E2FB6097E3FB60A7E4FB60B712EE900ACE
:10698000E1FB60C7E2FB60E7E3FB6057E4FB6067A5
:1069900004EE908A11EE100A4FF00008E1FB009817
:1069A000E2FB60A8E3FB60B8E4FB60C813EE100AEA
:1069B000E1FB60E8E2FB6058E3FB6068E4FB6078C1
:1069C00005EE109A11EE900A4FF00009E1FB00A9C4
:1069D000E2FB60B9E3FB60C9E4FB60E913EE900AF7
:1069E000E1FB6059E2FB6069E3FB6079E4FB6089ED
:1069F00005EE90AA17EE101A01F110011EC910EE53
:106A0000100A4FF0000AE1FB00BAE2FB60CAE3FBA8
:106A100060EAE4FB605A12EE100AE1FB606AE2FBF6
:106A2000607AE3FB608AE4FB609A06EE10BA10EE2F
:106A3000900A4FF0000BE1FB00CBE2FB60EBE3FBC5
:106A4000605BE4FB606B12EE900AE1FB607BE2FBB3
:106A5000608BE3FB609BE4FB60AB06EE90CA11EE3B
:106A6000100A4FF0000CE1FB00ECE2FB605CE3FB82
:106A7000606CE4FB607C13EE100AE1FB608CE2FBCF
:106A8000609CE3FB60ACE4FB60BC07EE10EA11EE37
:106A9000900A4FF0000EE1FB005EE2FB606EE3FB4C
:106AA000607EE4FB608E13EE900AE1FB609EE2FBE9
:106AB00060AEE3FB60BEE4FB60CE53EC162A17EE3B
:106AC000104A12EB0A0253EB0B0354EB0C0455EB88
:106AD0000E05002040F1000012EB0B0253EB0C03FB
:106AE00054EB0E0455EB0E0546410020474158EB90
:106AF000000859EB0A0940F10000B2EB0E0273F1F5
:106B0000000374F1000475EB0A0576EB0B0677EBD6
:106B10000C0778EB0A0879EB0C0960F10000B5EB83
:106B20000B0576EB0C0677EB0E0778EB0B0879EB91
:106B30000E0960F100005FEAE07C7FEA0C0CDCF1FA
:106B4000000EB2EB0C0273EB0C0374EB0C0475F14A
:106B5000000576F1000677F1000778EB0E0879EB77
:106B60000C0960F100005FEAE07CDCF1000E12EB42
:106B70000C0253EB0C0354EB0C0455F1000556F1D9
:106B8000000657F1000758EB0E0859EB0C0940F1CD
:106B900000005FEAE07CDCF1000E12EB0C0253EB2C
:106BA0000C0354EB0C0455F1000556F1000657F1A7
:106BB000000758EB0E0859EB0C095BEC14AA51ECDA
:106BC000150A1AEB060A5BEB070B50EB080051EBBA
:106BD00009015FF0000C4CF1000C1AEB070A5BEBAB
:106BE000080B50EB090051EB090152EB0C025FF06E
:106BF000000C53EB0C0354EB0C0475414CF1000CEE
:106C0000BAEB090A7BF1000B70F10000B141BA4107
:106C100073EB0803B44175EB08056CF1000CC91B5C
:106C200072EB080273EB0903BC4175EB09056CF1CB
:106C3000000C5FEAEC787FEA0808D8F10009BAEBAB
:106C4000080A7BEB080B70EB080071F1000172F190
:106C5000000273F1000374EB090475EB08056CF195
:106C6000000C5FEAEC78D8F100091AEB080A5BEB3C
:106C7000080B50EB080051F1000152F1000253F1F2
:106C8000000354EB090455EB08054CF1000C5FEAD6
:106C9000EC78D8F100091AEB080A5BEB080B50EB13
:106CA000080051F1000152F1000253F1000354EBCE
:106CB000090455EB080517EE907AA7E8000C87E861
:106CC0003F00BDE8F08F00BF2DE9F00791E8F8071D
:106CD000B2E802105B1854EB0C04B2E802104D410C
:106CE00056EB0C06B2E802104F4158EB0C08B2E824
:106CF000021059EB01095AEB0C0A4FF0260261EB26
:106D0000010122EA01015B1854F1000455F100056C
:106D100056F1000657F1000758F1000859F1000933
:106D20005AF1000A61EB010122EA01010B4480E8FB
:106D3000F807BDE8F00770472DE9F00791E8F8077C
:106D4000B2E802105B1A74EB0C04B2E802108D4139
:106D500076EB0C06B2E802108F4178EB0C08B2E833
:106D6000021079EB01097AEB0C0A4FF0260261EB75
:106D7000010102EA01015B1A74F1000475F10005DA
:106D800076F1000677F1000778F1000879F1000943
:106D90007AF1000A61EB010102EA0101A3EB0103B0
:106DA00080E8F807BDE8F00770470A462DE9F04F84
:106DB00040EC171A92EC080A1EC910EE100AA1FB4B
:106DC00000784FF00009E2FB00894FF0000AE3FB76
:106DD000009A4FF0000BE4FB00AB12EE100A4FF0EC
:106DE000000CE1FB00BC4FF0000EE2FB00CE4FF0C8
:106DF0000005E3FB00E54FF00006E4FB005604EE5F
:106E0000107A10EE900A4FF00007E1FB0087E2FBDA
:106E10006097E3FB60A7E4FB60B712EE900AE1FB2A
:106E200060C7E2FB60E7E3FB6057E4FB606704EEEA
:106E3000908A11EE100A4FF00008E1FB0098E2FB87
:106E400060A8E3FB60B8E4FB60C813EE100AE1FB46
:106E500060E8E2FB6058E3FB6068E4FB607805EE05
:106E6000109A11EE900A4FF00009E1FB00A9E2FB35
:106E700060B9E3FB60C9E4FB60E913EE900AE1FB53
:106E80006059E2FB6069E3FB6079E4FB608905EE31
:106E900090AA17EE101A01F110011EC910EE100A87
:106EA0004FF0000AE1FB00BAE2FB60CAE3FB60EAD4
:106EB000E4FB605A12EE100AE1FB606AE2FB607AC2
:106EC000E3FB608AE4FB609A06EE10BA10EE900ACB
:106ED0004FF0000BE1FB00CBE2FB60EBE3FB605B00
:106EE000E4FB606B12EE900AE1FB607BE2FB608BDF
:106EF000E3FB609BE4FB60AB06EE90CA11EE100A68
:106F00004FF0000CE1FB00ECE2FB605CE3FB606C2B
:106F1000E4FB607C13EE100AE1FB608CE2FB609CFA
:106F2000E3FB60ACE4FB60BC07EE10EA11EE900AF4
:106F30004FF0000EE1FB005EE2FB606EE3FB607E63
:106F4000E4FB608E13EE900AE1FB609EE2FB60AE14
:106F5000E3FB60BEE4FB60CE4FF0260153EC142A45
:106F60004FF00000E6FB0120E7FB613057EC156AAB
:106F7000E8FB6160E9FB617059EC168AEAFB61800D
:106F8000EBFB619017EE10AAECFB61A0EEFB6150E9
:106F900000FB01F0121853F1000356F1000657F1FF
:106FA000000758F1000859F100095AF1000A55F19B
:106FB000000B60EB000021EA0000024417EE900A8B
:106FC00080E8CC0FBDE8F08F2DE9F00791E8F017CD
:106FD0004EF6A1514FEA4101A4FB01234FF00004FA
:106FE000E5FB01344FF00005E6FB01454FF00006DC
:106FF000E7FB01564FF00007E8FB01674FF0000880
:10700000E9FB01784FF00009EAFB01894FF0000A23
:10701000ECFB019A4FF026010AFB01FA12EB0A027F
:1070200053F1000354F1000455F1000556F1000638
:1070300057F1000758F1000859F100096AEB0A0AF4
:1070400021EA0A010A4480E8FC03BDE8F007704722
:107050002DE9F00390E8F8134FEAEC7202F0130206
:107060002CF0004C02F11301591854F1000155F1B4
:10707000000156F1000157F1000158F1000159F1EA
:1070800000015CF100014FEAE17101F013011144CC
:107090005B1854F1000455F1000556F1000657F154
:1070A000000758F1000859F100094CF1000C2CF0D0
:1070B000004C80E8F813BDE8F00370472DE9F05F5D
:1070C0000546002092469B46884606468146402457
:1070D0001BE0284641464746224600F07BF85346CF
:1070E0005A46C01A914110D311461846224600F064
:1070F00016F82D1A67EB01084F46224601200021A1
:1071000000F00DF817EB00094E41201EA4F1010418
:10711000DFDC484631462A464346BDE8F09F202A38
:1071200004DB203A00FA02F1002070479140C2F1DE
:10713000200320FA03F3194390407047004870473A
:10714000E88D030010B540EA01040346A40703D00C
:1071500009E010C9121F10C3042AFAD203E011F883
:10716000014B03F8014B521EF9D210BDD2B201E01F
:1071700000F8012B491EFBD270470022F6E710B53C
:1071800013460A4604461946FFF7F0FF204610BD95
:10719000421C10F8011B0029FBD1801A704710B562
:1071A000002200E0521C835C8C5CA34201D1002BC6
:1071B000F8D1D8B2E1B2401A10BD30B50446002073
:1071C000034600E05B1C934203D2E05CCD5C401BB5
:1071D000F8D030BD202A04DB203A21FA02F0002149
:1071E000704721FA02F3D040C2F1200291400843D7
:1071F00019467047064C074D06E0E06840F0010371
:1072000094E8070098471034AC42F6D3FEF7FCFF31
:1072100078B1030098B1030070B58C1810F8015BC9
:1072200015F0070301D110F8013B2A1106D110F81F
:10723000012B03E010F8016B01F8016B5B1EF9D123
:107240002B0705D40023521E0DD401F8013BFAE7A9
:1072500010F8013BCB1A921C03E013F8015B01F814
:10726000015B521EF9D5A142D8D3002070BD0000A9
:107270002DE9F0410446B0B00D460A46684604F1D7
:107280002007002100F0C0F804F140083A462146EA
:1072900010A804F16006FFF789FD4146324618A8A0
:1072A000FFF784FD4246394620A8FFF77FFD3246AE
:1072B000214628A8FFF77AFDEB0F20466A4610A961
:1072C00000F034F930B0BDE8F08100BF2DE9F041A5
:1072D0000446B0B00D460A46684604F12007012175
:1072E00000F092F804F140083A46214610A804F153
:1072F0006006FFF75BFD4146324618A8FFF756FDD2
:107300004246394620A8FFF751FD3246214628A8BB
:10731000FFF74CFDEB0F20466A4610A900F006F976
:1073200030B0BDE8F08100BF2DE9F041B0B00446B7
:1073300000F1200768460D4604F1400800F098F877
:1073400004F160063A46214610A8FFF72FFD41469A
:10735000324618A8FFF72AFD4246394620A8FFF713
:1073600025FD3246214628A8FFF720FDEB0F2046D9
:107370006A4610A900F0DAF830B0BDE8F08100BF2D
:1073800070B5A0B0044601F1200668460D46FFF72F
:107390000CFD314608A8FFF708FD05F1400110A8D3
:1073A000FFF703FD10AA11461046FFF78DFC694652
:1073B00018A800F007FC324629462046FFF784FC57
:1073C00021462046FFF7F1FC6A4621462046FFF79A
:1073D000B3FC04F1400508AA21462046FFF7ACFCA7
:1073E000284608AA18A9FFF76FFC10AA294604F13D
:1073F0002000FFF7A1FC08AA18A904F16000FFF71C
:107400009BFC20B070BD00BF2DE9F04102EBE2759E
:1074100085EAE27582B00C460021064600F120079D
:1074200000F0C6FB691EC90F384600F0C1FB0F4BC8
:1074300003EB442440344FF0010885EA0802013A86
:10744000D20F21463046019208F10108FFF730F8CB
:1074500004F12001019A3846FFF72AF8B8F1090F24
:1074600004F14004E9D102B0BDE8F08198AA03001C
:107470002DE9F04101EBE176074682B086EAE1763C
:10748000002100F095FB07F12008711EC90F40464E
:1074900000F08EFB0C4D012486EA0402013AD20F63
:1074A0002946384601920134FFF702F805F1200120
:1074B000019A4046FEF7FCFF092C05F14005EBD18F
:1074C00002B0BDE8F08100BFD8AE0300F0B5D1E94D
:1074D00008328E6ACD69144F8DB00C46110F41EA07
:1074E00006114FEA137C1B014CEA021C43EA157398
:1074F0003A460546029104A86946360FCDF804C005
:1075000000930396FFF74AF8009B21461B0704AA45
:1075100028460B93FEF7ACFFEA693946D20F28469E
:10752000FEF7C6FF0DB0F0BD78AA03002DE9F041CB
:107530000D46A2B01646044620312A4602A81F4630
:1075400006F120080191FFF7F7FB01992A460AA8E6
:10755000FFF7BAFB4146324612A8FFF7EDFB414662
:1075600032461AA8FFF7B0FB3A461AA912A8FFF74D
:107570000AF802A912AA0846FFF718FC0AA91AAAD3
:107580000846FFF713FC4246314612A8FFF70EFCEF
:1075900012A905F160020846FFF708FC12A9084687
:1075A000144AFFF703FC05F1400211461AA8FFF741
:1075B0008BFB02AA0AA92046FFF7BEFB04F12005B7
:1075C00002AA0AA904F16000FFF77EFB40342846B6
:1075D00012AA1AA9FFF7B0FB12AA1AA92046FFF7B0
:1075E00073FB3A4629462046FEF7CDFF22B0BDE8A0
:1075F000F08100BFD8B003002DE9F047CC7F91F8AF
:1076000000A0C2B00B4604F03F04D1F80110D3F83B
:1076100009E0D3F80DC0D3F80580D3F81560D3F88E
:107620001950D3F81170CDF8491044F040041146B8
:1076300081462AF0070202A893F81DA09B7FCDF88F
:1076400051E0CDF855C08DF866308DF867408DF863
:107650004820CDF84D80CDF85D60CDF86150CDF873
:1076600059708DF865A000F087FA202202A91AA8A7
:10767000FFF7D2F802A8012100F09AFA0AA8002127
:1076800000F096FA1AA922A82022FFF7C5F82AA826
:10769000012100F08DFA1AAE0DF1480806240025EC
:1076A00016F8017D47FA04F32A4603F001056A4003
:1076B00022A902A80192FEF766FF019A2AA90AA848
:1076C000FEF761FF0AAA02A932A8FFF7FDFA0AAA8B
:1076D000104602A9FFF730FB2AAA22A93AA8FFF711
:1076E000F3FA2AAA104622A9FFF726FB3AA9084670
:1076F0000AAAFFF75BFB2AA9084632AAFFF756FB46
:107700003AAA2AA922A8FFF7DFFA2AA93AAA084624
:10771000FFF712FB22A90846FFF747FB2AA90846F4
:10772000FFF743FB2AA91AAA0846FFF73FFB32A935
:107730000846FFF73AFB0AA93AA8FFF736FB3AAA30
:1077400032A902A8FFF732FB32A93AAA0846FFF78E
:10775000F3FA32A90AA8FFF737FC0AA908463AAAA1
:10776000FFF7B2FA0AA9013C32AA0846FFF71EFB4E
:10777000631C97D146454FF0070491D10AA90846EA
:10778000012200F031FA02A90AAA0846FFF70EFB0F
:1077900002A9484600F03AFB42B0BDE8F08700BFBE
:1077A000014AFFF729BF00BF54A7030070B500F1DD
:1077B000200690B00D46044600F05CFB05F1200168
:1077C000304600F057FB214608A8FFF79FF808A9AC
:1077D00008460C4AFFF72EF808A922460846FFF78C
:1077E00096F808A9084A0846FFF724F83146684683
:1077F000FFF78CF8694608A82022FEF7EDFF013854
:1078000010B070BDF8B0030018B103002DE9F043CB
:10781000BBB089468046114612A8514AFEF728FEA1
:107820005049024612A8FEF743FE199E4C4900EA51
:10783000D6760746C6F1010212A8FEF739FE199D59
:107840004A462AA91AA8ED4301F014F8ED0F22A91F
:10785000C5F10102084600F0F1FAC7F10107FE2464
:1078600002AA1AA92AA800F0B9FF62113AAB03EBE9
:10787000820204F01F0152F8A03CCB402A4603F0DC
:1078800001056A402AA91AA80192FEF77CFE019A16
:1078900032A922A8FEF777FE013C2AA91AA800F017
:1078A00037FF631CDCD1C5F101020AA822A900F050
:1078B000C5FA754002AA1AA92AA800F08FFF2AA9C2
:1078C0002A461AA8FEF75FFE2A4632A922A8FEF72A
:1078D0005AFE0AA902AA0846FFF719F80AA908469B
:1078E00000F0E2FA0AA908F1200409F12002084692
:1078F000FFF70DF822A90AAA2046FFF708F80AAAFE
:107900001AA902A8FFF703F802A90846FEF7FEFF2E
:107910001AAA02A90AA8FEF7FAFF214602A8FEF752
:10792000F5FF0AAA02A91046FEF7C3FF0E4A0AA9EC
:1079300002A8FEF7BEFF20462021FEF760FF0AA93D
:107940004342024602A81F43FEF71DFE4046074A77
:1079500002A9FEF7DCFF38463BB0BDE8F08300BF6C
:1079600058B1030038AA030018B1030058AA030055
:107970000A460149FFF74ABF74A7030000F044BB61
:1079800038B504460D4600F03FFB05F1200104F137
:107990002000BDE8384000F037BB00BF70B5A8B08C
:1079A00005466846164600F09DFB3146044618A879
:1079B000FFF7FCFE6A46034618A908A81C43FFF718
:1079C00025FF08A904432846FFF7D8FF204628B022
:1079D00070BD00BF30B599B00546684600F082FB27
:1079E0006946044608A8FFF7C3FF08A904432846D0
:1079F000FFF7C6FF204619B030BD00BF10B52022EA
:107A0000B0B004460DEB020000F096FB9DF83F304D
:107A10009DF8202003F07F0343F0400322F007028B
:107A200008A968468DF83F308DF8202000F006FB4D
:107A3000694618A800F028F818A9204600F002F8B6
:107A400030B010BD30B599B004460D4610A8403195
:107A5000012200F0C9F8294610AA6846FFF7A6F9E6
:107A600010AA05F1200108A8FFF7A0F908A92046EF
:107A700000F0CCF9684600F093F8E37F83EAC01089
:107A8000E07719B030BD00BF2DE9F041B0B0E84655
:107A90000446404600F002FB04F140069DF93F1009
:107AA0002046FFF7E5FC3046012100F081F804F1A3
:107AB00020070DF11505214610A8FFF761FC18AA53
:107AC00010A92046FFF772F928AA20A93846FFF727
:107AD0006DF920AA18A93046FFF768F9214610A8C9
:107AE000FFF74EFC18AA10A92046FFF75FF928AA55
:107AF00020A93846FFF75AF920AA18A93046FFF7FF
:107B000055F9214610A8FFF73BFC18AA10A92046FA
:107B1000FFF74CF928AA20A93846FFF747F920AA11
:107B200018A93046FFF742F9214610A8FFF728FCB4
:107B300015F9011D10A8FFF79BFB95F9151010A86A
:107B4000FFF7C4FB95F92A1010A8FFF7EDFB18AA60
:107B500010A92046FFF72AF928AA20A93846FFF7DE
:107B600025F920AA18A93046FFF720F9A845A2D187
:107B700030B0BDE8F08100BF0B6803604B68436024
:107B80008B688360CB68C3600B6903614B69436199
:107B90008B698361CB6923F00043C361704700BFE9
:107BA00010B50446FFF754FA206800F0010010BD3C
:107BB0000023C0E90013C0E90233C0E90433C0E97F
:107BC0000633704730B589B0002400250A4669465F
:107BD000CDE90045CDE90245CDE90445CDE90645AD
:107BE000FFF7AAF809B030BDF0B5A1B00446684669
:107BF00016460D46FFF7D9F8694618A8FFF7D5F8DD
:107C000018A90846FFF7D1F82A4618A908A8FFF7CF
:107C1000CDF86A4608A96846FFF7C8F8694618A86B
:107C2000FFF7C3F808AA104618A9FFF7BFF808A97C
:107C300018A8FFF7BAF818A90846FFF7B6F818A968
:107C40000846FFF7B2F818A90846FFF7AEF818A9DA
:107C50000846FFF7AAF808AA18A91046FFF7A6F8E1
:107C6000022708A900E0012718A8FFF79EF818A925
:107C70000846FFF79AF818A90846FFF796F818A9DA
:107C80000846FFF792F818A90846FFF78EF8012F6B
:107C900018A9E8D110A808AAFFF788F8042710A9A6
:107CA00018A8FFF782F818A90846FFF77EF818A968
:107CB0000846FFF77AF818A90846FFF776F818A9DA
:107CC0000846FFF772F8013F18A9E9D110AA084643
:107CD000FFF76CF8022700E0012718A90846FFF714
:107CE00064F818A90846FFF760F818A90846FFF7D6
:107CF0005CF818A90846FFF758F818A90846FFF7D6
:107D000054F8012FE8D118A908AA10A8FFF74EF8D7
:107D10000A2710A918A8FFF748F818A90846FFF77E
:107D200044F818A90846FFF740F818A90846FFF7D5
:107D30003CF818A90846FFF738F8013F18A9E9D11F
:107D400010AA08A8FFF732F8142708A918A8FFF707
:107D50002CF818A90846FFF728F818A90846FFF7D5
:107D600024F818A90846FFF720F818A90846FFF7D5
:107D70001CF8013F18A9E9D108AA0846FFF716F830
:107D80000A2718A90846FFF710F818A90846FFF7B0
:107D90000CF818A90846FFF708F818A90846FFF7D5
:107DA00004F818A90846FFF700F8013FE9D118A91F
:107DB000084610AAFEF7FAFF18A9084666B9FEF7AA
:107DC000F4FF18A90846FEF7F0FF2A4618A9204636
:107DD000FEF7ECFF21B0F0BDFEF7E7FF18A908465B
:107DE000FEF7E3FF18A90846FEF7DFFF18A90846CB
:107DF000FEF7DBFF18A90846FEF7D7FF6A4618A969
:107E00002046FEF7D3FF21B0F0BD00BF38B50C46C9
:107E100005460846FFF71CF923682B6063686B6012
:107E2000A368AB60E368EB6023692B6163696B61F6
:107E3000A369AB61E369EB6138BD00BF70B588B081
:107E400004460D46684620211646FEF7ECFC00234A
:107E50002946204620220093FEF7DEFC2A4669468A
:107E60006846FEF726FD324669462046FEF78BFB44
:107E700008B070BD0B681BBAC3614B681BBA836145
:107E80008B681BBA4361CB681BBA03610B691BBAD1
:107E9000C3604B691BBA83608B691BBA4360CB69B3
:107EA0001BBA0360704700BF70B598B00C4605461A
:107EB00010A8FEF72BFD224610A96846FEF727FD05
:107EC000694610A8FEF722FD10A90846FEF71EFD20
:107ED0006A4610A908A8FEF71AFD08A910A8FEF71F
:107EE00015FD10A90846FEF711FD10A90846FEF77A
:107EF0000DFD10A90846FEF709FD10A908AA0846BD
:107F0000FEF705FD10A90846FEF700FD10A908467A
:107F1000FEF7FCFC10A96A4608A8FEF7F8FC052647
:107F200008A910A8FEF7F2FC10A90846FEF7EEFC1F
:107F3000013E10A9F5D108AA0846FEF7E8FC05267F
:107F400010A90846FEF7E2FC10A90846FEF7DEFC81
:107F5000013EF5D110A908AA0846FEF7D8FC10A9E1
:107F600008A8FEF7D3FC08A90846FEF7CFFC08A92D
:107F70006A466846FEF7CBFC1026694610A8FEF755
:107F8000C5FC10A90846FEF7C1FC013E10A9F5D1B9
:107F900022460846FEF7BBFC402610A90846FEF71D
:107FA000B5FC10A90846FEF7B1FC013EF5D110A9B9
:107FB0006A460846FEF7ABFC102610A90846FEF7F5
:107FC000A5FC10A90846FEF7A1FC013EF5D110A9B9
:107FD0006A460846FEF79BFC102610A90846FEF7E5
:107FE00095FC10A90846FEF791FC013EF5D110A9B9
:107FF00008AA0846FEF78BFC224610A92846FEF781
:1080000086FC18B070BD00BFCB691BBA03608B69DA
:108010001BBA43604B691BBA83600B691BBAC36010
:10802000CB681BBA03618B681BBA43614B681BBAF0
:1080300083610B681BBAC361704700BFF0B54B0783
:108040008DB01AD1D1E90023D1E90245CDE9002351
:10805000D1E90467D1E90623CDE90245CDE90467FA
:10806000CDE906230022002300246946CDE9082338
:108070000A94FFF72BFA0DB0F0BD4C688A68CB6804
:108080000E694D69019402928C69CA6903930B6869
:108090000093CDE90465CDE90642E3E7F0B400259D
:1080A000471E2C462E46E30814F0070F08BF51F870
:1080B000235005F00F03334403F1080202F47F66F6
:1080C00001349B1B3F2C4FEA121607F8013F4FEA81
:1080D0001515C2F30712E6D12A4480F83F20F0BC00
:1080E000704700BF70B50B68124E1BBAC3614B6876
:1080F0001BBA83618B681BBA4361CB681BBA0361EF
:108100000B691BBAC3604B691BBA83608B691BBACE
:108110004360CB691BBA0360324601460446FEF752
:10812000A7F90546314620462A46FEF7C1F9681EE2
:1081300070BD00BF38B103002DE9F04F0FF2E80B1E
:10814000DBE900AB0FF2E809D9E90089B3B0CDE96A
:1081500000ABCDE902890FF2E00BDBE900AB0FF2D7
:10816000E009D9E90089CDE904ABCDE906890FF230
:10817000D80BDBE900AB0FF2D809D9E90089CDE9CA
:1081800008ABCDE90A890FF2D00BDBE900AB0FF2A7
:10819000D009D9E900890025CDE90CABCDE90E89DC
:1081A0000646319230955AB96F464FF0000C314671
:1081B0003846CDF8C0C000F057F833B0BDE8F08FB6
:1081C0006F4638461446884600F0B0FB241A8446B1
:1081D00044440028E9D0431E022B0FD920F00300AD
:1081E0002044234610AA53F8041B42F8041B834280
:1081F000F9D12CF0030565452C44D8D032AB2B4483
:10820000227803F8882C6B1C9C45D0D932AA1344E1
:108210000235627803F8882CAC45C8D932AB1D44CE
:10822000A37805F8883CC2E708C9BCF367E6096A89
:108230003BA7CA8485AE67BB2BF894FE72F36E3CF5
:10824000F1361D5F3AF54FA5D182E6AD7F520E5152
:108250001F6C3E2B8C68059B6BBD41FBABD9831F0C
:1082600079217E1319CDE05BF0B5D0F8C03004461B
:10827000C218581C8026702883B00D4682F84060D2
:108280006FD804F14001C0F17A03022BC0F17B07E3
:108290000FD900F14003234427F003021A440026BB
:1082A00043F8046B9A42FBD127F00303BB42184406
:1082B00011D0231800227A2883F8402000F101030E
:1082C00009D02344792800F1020683F8402002D027
:1082D000264486F84020D4F8C430580F5A0D84F84C
:1082E000BB0084F8BC20580B5A09DB0084F8BD00A1
:1082F00084F8BE2084F8BF30204600F0A5FCD4E905
:10830000002312BA1BBA6A602B60D4E9022312BAA6
:108310001BBAEA60AB60D4E9042312BA1BBA6A61E3
:108320002B61D4E9062312BA1BBAEA61AB61D4E926
:10833000082312BA1BBA6A622B62D4E90A2312BA62
:108340001BBAEA62AB62D4E90C2312BA1BBA6A63A5
:108350002B63D4E90E2312BA1BBAEA63AB6303B0F2
:10836000F0BD7F2862D8204400227E2B80F8402078
:1083700003F102015AD021447D2B03F1030081F85F
:10838000402053D020447C2B03F1040180F840208E
:108390004CD021447B2B03F1050081F8402045D0CF
:1083A00020447A2B03F1060180F840203ED021447E
:1083B000792B03F1070081F8402037D02044782B37
:1083C00003F1080180F8402030D02144772B03F1DD
:1083D000090081F8402029D02044762B80F84020E5
:1083E00003F10A0122D02144752B03F10B0081F81F
:1083F00040201BD02044742B03F10C0180F8402056
:1084000014D02144732B03F10D0081F840200DD0CE
:108410002044722B03F10E0180F8402006D0214445
:10842000702B81F8402001D184F8BF2004F1400175
:108430002046019100F008FC7A2801997FF623AFCD
:1084400049E700BF2DE9F04F93B0A1F108030C9369
:10845000D2E90EB30D93136B0393536B0493936A9A
:108460000593D36A069393690E93D3690F93936828
:108470000193D368099313690793D2E90876D2E987
:10848000005A53690893034680330A90119300956C
:10849000B44602975646CDF840B008E000990093E4
:1084A0000B9B0996019106460293CC461F460A99FA
:1084B0000C9C059DF4E90289F1E802ABB80BBB0CFA
:1084C0000A910C9440EA8C40039CF90543EA8C33F2
:1084D0001AEB080E83EA000341EA5C214BEB090B1F
:1084E0004B4084EA05094FEA9C304FEA9C414FEA31
:1084F000CC58049D41EA873148EA572840EA874032
:1085000009EA0709069F484085EA07040399009F86
:1085100004EA0C0413EB0E0389EA010984EA05045A
:1085200080EA08003D464FEA17784FEA877E4FEA17
:108530004761019F4BEB000013EB090344EB000084
:10854000B946109C2F4645EA090B079D1B194FEAB7
:1085500016794FEA86740BEA050B49EA07193D467E
:1085600044EA9704019F05EA070A0D9D099F40EB25
:10857000050528460E9D5D1948EA06180B954EEA3A
:10858000960E009D88EA0E0E4FEA466848EAD51816
:1085900041EAD611089D8EEA01014BEA0A0A46EA31
:1085A000070E06EA070B0F9F89EA04040EEA050E80
:1085B000059D156340EB0709079D069F576311EB67
:1085C0000A0A84EA08080399049C9163D4639561BC
:1085D000029F1091C2E90A7C019F1761009F0599D3
:1085E0000391C2E902760B9F069917624EEA0B0EC1
:1085F000029F089D049148EB0E0E0799D5611AEB76
:108600000303CDE9057C099D019F0E914EEB00000F
:1086100008990D940F91C2E900305561C2F8249079
:10862000079708950A99119CA1427FF437AF13B0C0
:10863000BDE8F08F2DE9F04FA0F1080685B00025C8
:10864000AA1E02F00F022B46013500EBC20105F015
:108650000F0450F832E04A6850F83410073B00EB42
:10866000C40403F00F0300EBC3034FEADE474FEAF5
:10867000CE0BD4F804C04BEA527BD3E9004A47EA58
:1086800042374FEA9E13F6E9028987EA0B0743EA6D
:1086900082637B404FEAD24B0393D30014EB080470
:1086A000CDE900894BEA4E3B4FEA112843EA5E7E52
:1086B0004FEA510348EA0C6843EACC738BEA0E0E8A
:1086C0004FEA5C094FEA1C2B83EA080349EAC179A7
:1086D0004FEAD1184BEA016B019F039948EA4C68B5
:1086E0004AEB070A8EEA9212611883EA080389EAC4
:1086F0000B044AEB020284EADC1CC91842EB0C02B0
:10870000102DC6E900129BD105B0BDE8F08F00BF67
:10871000F0B599B004460D460A4601466846FEF794
:10872000C8F869466846FEF7F1F821466A4608A887
:1087300005F1200604F12007FEF7E9F86A4629460C
:108740006846FEF7E4F83946324610A8FEF772F89C
:10875000324639463046FEF7ACF831462846FEF739
:10876000D5F86A4608A92046FEF764F8224629464D
:108770002846FEF79EF86A4608A96846FEF799F86B
:108780006A4639463846FEF7C2F82A4608A96846BE
:10879000FEF78FF86A4631463046FEF7B8F83A469B
:1087A00031463046FEF785F810A96846FEF7AEF868
:1087B000224669462046FEF77CF808A9224608466C
:1087C000FEF777F810A908AA0846FEF7A0F83A467F
:1087D00010A93846FEF76DF819B0F0BD2DE9F0414B
:1087E0000C4688B005469046014622466846FEF78C
:1087F00060F869466846FEF789F86A4629462846C1
:1088000004F12006FEF783F805F120076A462146A9
:108810006846FEF77CF8324630463946FEF749F89E
:1088200031462046FEF772F82A4621462046FEF7DA
:1088300040F86A4621462046FEF73BF86A4629463C
:108840004046FEF736F8424639463846FEF75FF8AE
:10885000224629466846FEF72CF86A4631463046DD
:10886000FEF755F83A4631463046FEF722F808B092
:10887000BDE8F0812DE9F04188B00C46064602F1D2
:108880002001684606F120079046FEF73FF86A4649
:1088900069466846FDF7CEFF38466946FEF736F86A
:1088A0003A463946384604F12005FDF7C3FF6A46CB
:1088B00069466846FDF7BEFF28464146FEF726F8A2
:1088C0006A4641463046FEF722F82A46294668465F
:1088D000FDF7B0FF2A4669466846FDF7ABFF124A2E
:1088E00069466846FDF7A6FF69462046FEF70EF882
:1088F000324621462046FDF7DCFF3246214620461F
:10890000FDF7D7FF224631462846FDF7D2FF6A46DB
:1089100029462846FDF7FBFF3A4629462846FDF73B
:10892000C8FF08B0BDE8F081F8B003002DE9F04FB2
:10893000BDB07F2A0B9240F279818246A2F1800479
:10894000DAF818300193DAF81C300293DAF82030A4
:108950000393DAF824300493DAE90AB3D0E900206B
:10896000DAE9046524F07F0489468034DAE90217E5
:108970004C440593DAE90D8EDAF8303006930A9408
:10898000DAF83C30CDF81CB014462A463D4617466E
:10899000D9F80C200C94D9F8084008940D90119740
:1089A000D9F81400099017BA089A109616BA099ABD
:1089B0000F9515BA019A1292029A1392039A149281
:1089C000049A1592079A1692059A1792069AD9F860
:1089D00004B0D9F800C0D9F81040D9F81C000E91A5
:1089E000D9F81810CDE91828CDE91AE3D9F848309C
:1089F0000193D9F854300293D9F850300393D9F841
:108A00005C300493D9F858300593019BD9F8208045
:108A1000D9F82CE0D9F84C209BFA8BFB9CFA8CFC03
:108A200024BA00BA09BA1BBACDE91CBCCDE91E763E
:108A3000D9F824B0D9F828C0D9F83470D9F8306002
:108A4000CDE92054CDE92201D9F83C50D9F838407D
:108A5000D9F84400D9F840102F93029B1BBA3093E9
:108A6000039B1BBA3193049B1BBA3293059B98FA64
:108A700088F89EFA8EFE9CFA8CFC3FBA36BA2DBA64
:108A800024BA1BBA9BFA8BFBCDE926ECCDE92876FC
:108A9000D9F860E0D9F86CC0D9F86870D9F874607A
:108AA0003393CDE92A54D9F87830D9F87050D9F8F1
:108AB0007C40CDE924B8D9F8648000BA09BA12BA6A
:108AC0009EFA8EFE9CFA8CFC1BBACDE92C012E92EC
:108AD0001CA90CAA574898FA88F83FBA36BA2DBA9A
:108AE00024BACDE9348ECDE936C7CDE93865CDE974
:108AF0003A43FFF7A7FC1CA8FFF79CFD0CAA1CA992
:108B00004D48FFF79FFC1CA8FFF794FD0CAA1CA979
:108B10004A48FFF797FC1CA8FFF78CFD0CAA1CA97C
:108B20004748FFF78FFC1CA8FFF784FD45480CAAB7
:108B30001CA9FFF787FCDDE90C40DAF80020DAF821
:108B400008300E99119F1419DAF80420CAF8004071
:108B5000DAE9035642EB000059180F9BDAF824209B
:108B600043EB0505109BF618DAF8143043EB0707C2
:108B7000DAF81830CAF814709C46129B1CEB0303F9
:108B80000193DAF81C309C46139B4CEB030CDAF88B
:108B90002030CDF808C09C46149B1CEB030C159BA1
:108BA000CDF80CC043EB0202019B0492CAE901011B
:108BB000CAE90356CAF81830029BCAF81C30CAE941
:108BC00008C2169BDAF82820D3180793179ACAF818
:108BD0002830DAF82C3053410593189ACAF82C3013
:108BE000DAF830309B180693199ACAF83030DAF860
:108BF000343043EB0208DAF838201B9BCAF8348083
:108C000094461A9A1CEB020EDAF83C2042EB03035E
:108C10000A9A09F180099145CAE90EE37FF4B8AEDA
:108C20000B9B03F07F003DB0BDE8F08F10463DB0D8
:108C3000BDE8F08FB8A7030038A80300B8A8030068
:108C400038A90300B8A903002DE9F041D1F804C008
:108C50000D68CC688A684B690F69CE69B0B08046F0
:108C60009CFA8CFC2DBA24BA12BA1BBACDE910C5F5
:108C7000CDE913231294D8E90223D8E900453FBA7D
:108C800036BACDE91576CDE90045D8E90467D8E9CB
:108C90000645CDE90223D8E90823CDE90467CDE9EB
:108CA0000645D8E90A67D8E90C45CDE90823886963
:108CB000D8E90E2300BACDE90A67CDE90C45179033
:108CC000CDE90E23CF6A8E6A4D6B0C6BC86B8A6B35
:108CD0004B6CD1F824E0D1F820C03FBA36BA2DBA97
:108CE00024BA00BA12BA1BBA1A971B960F6CCE6C34
:108CF0001C951D948D6C4C6D1E901F92086DCA6D55
:108D000020938B6D9EFA8EFE9CFA8CFC3FBA36BA8D
:108D10002DBA24BA00BA12BA1BBACDE92176CDE930
:108D20002354CDE92502CDE918EC2793D1F864E06E
:108D3000486FCA6F534CD1F860C0CF6E8E6E0D6F06
:108D40008B6F00BA11BA9EFA8EFE9CFA8CFC1BBA8D
:108D50006A462C902E91204610A93FBA36BA2DBAF9
:108D60002F93CDE928ECCDE92A762D95FFF76AFB04
:108D700010A8FFF75FFC6A4610A904F18000FFF716
:108D800061FB10A8FFF756FC6A4610A904F5807035
:108D9000FFF758FB10A8FFF74DFC6A4610A904F531
:108DA000C070FFF74FFB10A8FFF744FC6A4610A9FC
:108DB00004F50070FFF746FBD8F80000009DD8F8D6
:108DC0000410019ED8F80830029CD8F80C20D8F87E
:108DD0001070401946EB0101039DC8F8000004988B
:108DE000C8F804101B190599D8F81440D8F8186071
:108DF000C8F8083045EB0202069B079DC8F80C2016
:108E00003F1844EB0101D8F81C00089AC8F810700C
:108E1000D8F82070C8F81410F6180999D8F824303A
:108E2000C8F8186045EB0000BA1841EB0303C8E925
:108E30000702C8F82430D8E90A01DDE90A56D8F853
:108E400030300C9CD8F83420D8F83870401946EBF4
:108E500001010D9DC8F828000E98C8F82C101B19A8
:108E60000F99D8F83C40C8F8303045EB020238186A
:108E7000C8E90D2044EB01010020C8F83C1030B0D7
:108E8000BDE8F081B8A703002DE9F8430025DFF81D
:108E900094804FF4807601242F460095304607F0E9
:108EA000DBFB38B1D8F80403204203D0304607F08A
:108EB000C9FB2543361D64007F1CB6B2082FEDD3D5
:108EC0004FF4BE74204607F0C7FB48B1204607F0B8
:108ED000B9FB45F000456A460121002007F082FBFE
:108EE00015F0FF0F16D0012600242E420ED008EBFD
:108EF0008401D1F81005D1F81015C0F304200A4AF6
:108F0000C1F3014152F8242002B190477600641C5D
:108F1000082CEAD3002D02DA68460AF051FFBDE8BA
:108F2000F8830000006000400C3D002070B54FF455
:108F30008076304606F032FB114CB50560B1304604
:108F400006F033FB0120C5F80803607920B9012041
:108F500060712168002088474FF48276304606F021
:108F60001DFB00280AD0304606F01FFB0220C5F882
:108F700008032168BDE870400120084770BD00006B
:108F800030320020064882B0002101600068009065
:108F9000044800680449C0B2496802B008470000AC
:108FA00000D1004008D5004040320020024902486C
:108FB000091F0968006808478832002008F012BAC3
:108FC000F0B5A449A4484FF080540B68D4F8302180
:108FD0000078D4F83411551CC0F3031006D0944621
:108FE00001270026BCF1060F03D00AE003F0FF0CB6
:108FF000F6E7B4F82453DFF864C2C5F30425CCF8CF
:109000000050DDB2062D06D1032804D1DFF854C28A
:10901000934DCCF87450551C04D09446BCF1060F07
:1090200003D00AE003F0FF0CF8E7D4F84452DFF86D
:1090300038C2C5F34235CCF80050DDB2062D08D158
:10904000032806D1894DD5F800C02CF0807CC5F8E6
:1090500000C0551C04D09446BCF1060F03D00BE0B1
:1090600003F0FF0CF8E74FF08045C5F80C61C5F838
:1090700010617D4D2D1F2E60DDB2062D08D1032815
:1090800006D1DFF8E4C103250CF1640CCCF80050E4
:10909000DDB2062D10D103280ED1DFF8D4C105258D
:1090A000CCF80050724D78352F60714D08352E6028
:1090B0000CF104063F253560551C04D016460D46BC
:1090C000062E03D05BE0DEB20546F9E7ED1E012D6A
:1090D00055D9684D2D68684E3560664D2D1D2D683B
:1090E000361D3560634D08352D68361D3560614D80
:1090F0000C352D68361D35605E4D10352D68361DDA
:1091000035605C4D14352D68361D3560594D183568
:109110002D68594E20363560564D1C352D68361D4C
:109120003560544D20352D68361D3560514D243540
:109130002D68361D35604F4D28352D68361D35603C
:109140004C4D2C352D68361D35604A4D30352D6817
:10915000494E40363560474D34352D68361D3560F3
:10916000444D38352D68361D3560424D3C352D68EF
:10917000361D35603F4D40352D68361D3560551C18
:1091800003D01646062E02D007E0DEB2FAE7D4F886
:1091900058523A4E05F04F053560551C03D0134622
:1091A000062B02D008E0DBB2FAE735480368DB079C
:1091B00002D06FF001030360062A07D1C91E0229FD
:1091C00004D93048016841F480610160274874384F
:1091D000016841F470010160BFF34F8FBFF36F8FDF
:1091E000D4E94C104FF01022062907D1C01E0328E5
:1091F00004D9D2F808021C491C310860D2F80002D8
:10920000002803DBD2F8040200281FDA012008F04E
:1092100021FE1521C2F800121B480368002BFCD068
:10922000C2F8041201680029FCD0002008F012FEE8
:10923000BFF34F8F0D48F0380168144A01F4E06124
:1092400011430160BFF34F8F00BFFDE71149104884
:109250000860F0BDE00F00F0E80F00F0403501407D
:109260000DF0ADBA00C007403C050040FCED00E049
:10927000105600400404001020C50040E40E0040D9
:10928000000400403C17004000E401400400FA05DF
:109290000090D0034C3300200148006800470000D4
:1092A0003832002002E008C8121F08C1002AFAD193
:1092B00070477047002001E001C1121F002AFBD156
:1092C000704700000121202803DA81400548014051
:1092D00003E0402802DA2038814009B101207047BC
:1092E00000207047FC06FFBD2DE9F843804643F29D
:1092F000020659B9694609F02FFFB04202D008B101
:1093000000F0A4F99DF80000800744D400214046F5
:1093100009F02CFF05003ED0112D3CD01F482049FC
:10932000401AC708022000EB07440D2D0AD00B2D70
:109330001DD0B5421FD11B4920464246BDE8F84327
:1093400007F096BB20464246174907F091FB1321D0
:10935000404676DF00281ED008F000F9024601B032
:1093600020464346BDE8F04310A107F088BB2046E5
:1093700042461C49E2E7284608F0F0F80246012080
:1093800000EB0740434618A107F079FB2846BDE8EB
:10939000F84300F05BB9BDE8F883000008B20300B1
:1093A000B0B1030030980300BC97030073645F62A0
:1093B0006C655F6761705F646973636F6E6E656330
:1093C0007428292072657475726E65642025732077
:1093D0006F6E20636F6E6E5F68616E646C652025D2
:1093E000642E00007C980300417373657274696E8B
:1093F000672E20706D5F636F6E6E5F73656375724D
:109400006528292072657475726E65642025732045
:109410006F6E20636F6E6E5F68616E646C65202591
:10942000642E000031B500252C462146684605F023
:1094300045FA00B16D1C641C142CF6D3284638BDC7
:1094400010B560B159B102780B785208B2EB530FE6
:1094500005D10622401C491CFDF7AFFE08B10020D3
:1094600010BD012010BD800701D0002070470120F1
:109470007047C3688B4206D811440069491E814277
:1094800001D8012070470020704710B50122022149
:10949000002001F039FA08B1072810D10722022173
:1094A000012001F031FA08B1072808D100210A2271
:1094B000084601F029FA08B1072800D1002010BDA4
:1094C00070B58CB015460E4600236C46C3F10F01F3
:1094D000415CE1545B1C102BF8D30D2104F110000A
:1094E000FDF74BFE0020C0F10F02315C2244401C0E
:1094F00011740328F7D3684646DF0020C0F10F013E
:10950000214491F820102954401C0328F6D30CB0B4
:1095100070BD022001F0E4B80149C97800F0FEBC3A
:10952000F831002070B50024064D06E0686801217E
:1095300010F8340008F086F8641C28788442F5D3CB
:10954000002070BD48320020F8B516460C4605468E
:109550000A2A01D20720F8BD08F06EF918B908F000
:1095600031F90028F7D1134F102113487D603C706A
:10957000BE60FDF702FE0020C7E904000F4E0DE0BB
:1095800005EBC4003168009181788DF801100078F6
:109590000B4A694608F0A6F80028DCD1641EE4B244
:1095A000EED2BDE8F84005480021064A001D00F053
:1095B0005FB8000048320020D83D00202468030036
:1095C00009C8020051B3020072B607F005FB00BFE4
:1095D00007F02EF90028FBD111481249401AC4089F
:1095E000012000EB044010A107F03EFA114800688A
:1095F000C00700D000BE022000EB04400EA107F01F
:1096000033FABFF34F8F0B48E43801680E4A01F478
:10961000E06111430160BFF34F8F00BFFDE7000021
:10962000A0B20300B0B10300466174616C206572A2
:10963000726F7200F0ED00E053797374656D207203
:1096400065736574000000000400FA050EB5002182
:109650000091CDE901106A4644F20100FFF7B4FF22
:109660000EBD0000014801F0B2BF000068320020CA
:109670003AB100680129426100D000210161002057
:10968000704707207047000038B51148082358225A
:10969000416800910F49006805F091F8002815D144
:1096A0000D4A69460D4801F097FF04000ED10121D3
:1096B0000A4802F00CF80123094A1946074801F04C
:1096C0005EFF0649012008390870204638BD0000B9
:1096D0002C680300F83D0020E547030068320020B5
:1096E000FFFF7F0070B50446007F0D4608B10020E3
:1096F00070BDA26103F06EF8401941F10001C4E9A8
:109700000201206900B125612146BDE870400020BA
:109710000CF0C6B901460020087701200CF0C0B952
:1097200030B5EFF3108172B60D4A9468012324B16D
:109730000370002900D162B630BD93604FF0E02382
:10974000D3F88051074C25401560C3F88041D3F809
:10975000844154605A17C3F8842100220270E8E75C
:10976000503E0020FC06FFBD0B498A68002A11D03C
:1097700000280FD1EFF3108072B60B684FF0E02293
:10978000C2F800314B68C2F8043100228A60002818
:1097900000D162B670470000503E00202DE9F04134
:1097A000064608680C46411C4FF0A0474FF00105E3
:1097B00006D005FA00F1C7F80815206806F0ECFE9F
:1097C0006068411C02D0002106F0D4FE3168A06917
:1097D000C1F82405607D227D31681043C1F86C0515
:1097E000D4E900123068C0F81425C0F80C15207DAB
:1097F000012815D1A068411C02D0002106F0BAFE54
:10980000E068411C05D08540C7F80855E06806F0BF
:10981000C3FED4E902123068C0F80825C0F810155C
:10982000BDE8F0812DE9F041064608680C46411C70
:109830004FF0A0474FF0010506D005FA00F1C7F838
:109840000815206806F0B2FE6068411C02D00021B5
:1098500006F099FE3168A069C1F82405607D217D7C
:1098600032680843C2F86C05D4E900123068C0F8C9
:109870000C15C0F81425207D012815D1A068411CC5
:1098800002D0002106F07FFEE068411C05D0854033
:10989000C7F80855E06806F089FED4E9021230687E
:1098A000C0F80825C0F81015BDE8F08103F06CBEC3
:1098B0002DE9F047814605884A484FF000088AB0F4
:1098C00001784246284600F041FB99F80500400720
:1098D00001D4002176E005F58077B8B205AB01220E
:1098E000072109F037F804003F48404A4FF00101D2
:1098F000A0EB02004FEAD00001EB00460AD0204660
:1099000007F02CFE024630462B46394907F0B7F8DF
:10991000214629E0284603F0DBFA4FF6FF710446A2
:1099200088422BD18A46069803F03CFA04465045FB
:1099300010D00146284603F0ABFA2846FFF7ECFDAD
:10994000E0B928460BF032FB2846FFF7E5FD00287A
:10995000BFD013E009F0D4F90446504508D1304691
:1099600024A107F081F8042128460BF045FBB0E75D
:109970000146284603F08CFA4FF00108B8B222469F
:10998000072109F05FF807001BD0862F1ED007F0D3
:10999000E5FD024630462B462349009407F077F850
:1099A000394628460BF028FB0021484608F0CAFE3D
:1099B000B8F1000F02D0204603F074FA0AB0BDE8F7
:1099C000F0870121484608F0BDFEF7E71422174949
:1099D0006846FDF7B7FBADF80250684602F09EF806
:1099E000EFE70000F831002010B20300B0B103002F
:1099F000789B0300436F756C64206E6F7420616CFC
:109A00006C6F63617465206E657720706565725F49
:109A1000696420666F7220696E636F6D696E67207E
:109A2000626F6E642E000000949C0300E8660300E1
:109A300010B50A78044682B11648174BC01AC00800
:109A4000032303EB0040012A1FD0022A20D10A7908
:109A500012A1BDE8104007F00BB848880A1D014666
:109A6000204600F031F908B1FFF7F0FD204600F084
:109A700007F908B1FFF7EAFD204600F0CFF800280B
:109A800006D0BDE81040FFF7E1BD0A790BA1E0E781
:109A900010BD0000A0B20300B0B1030042617474B5
:109AA000657279204C6576656C2052656164206131
:109AB000732025642025252E000000004261747467
:109AC000657279204C6576656C2072656365697690
:109AD00065642025642025252E000000F8B5064683
:109AE0004FF000001500ADF8000015D009236A46BC
:109AF000304600F015F80446BDF80000064458B1A1
:109B000054B12846FDF744FBA04205D12246314618
:109B10002846FDF752FB08B10020F8BD0120F8BD32
:109B200070B5E0B1DAB1002402E0045D2C44A4B2C7
:109B3000651C8D4206D21688A642F6D8061976789C
:109B40009E42F2D18C420AD2A31C005D9BB200B1AE
:109B5000401E0004000C02D01C188C4201D90020C9
:109B600070BD138070BD2DE9F0418AB0064600201B
:109B7000ADF814001346102088468DF804000D46F9
:109B800006AA01A9184664DFA6B398BB9DF8040095
:109B9000022804D0042807D0102839D10DE0032072
:109BA0008DF81000022003E005208DF8100004203D
:109BB0008DF81100002404AF0FE007208DF810008D
:109BC0000620F5E73B5D05AA41463046FFF7A8FFB2
:109BD000641CE4B20546022C04D2BDF8140000282F
:109BE000F0D003E0BDF81400002812D080B2064483
:109BF00000240BE00CE030199DF8042006A9FDF7C5
:109C0000DCFA48B19DF80400204484B2AC42F2D39F
:109C100000200AB0BDE8F0810120FAE770B58AB0F3
:109C200048B30188A1F57F42FF3A22D001250446BE
:109C30008DF8205000268DF8216020216846FDF720
:109C40009CFA0E48CDE902048DF800506088ADF80A
:109C500012000220ADF8160008A80690ADF81460B6
:109C60008DF8105022886946206904F0BDFF0AB0C3
:109C700070BD0820FBE70E20F9E70000F7BF0200E7
:109C800010B588B004001AD02088A0F57F41FF39B4
:109C900013D020216846FDF770FA00208DF80000EF
:109CA0000848CDE90204A088ADF810002288694672
:109CB000206904F099FF08B010BD0820FBE70E20D2
:109CC000F9E70000F7BF020038B1018012B1126855
:109CD000C0F80220006904F04FBF0E20704708B59D
:109CE000B8B1B1B101228DF8022041F60F02ADF8F2
:109CF00000204FF6FF7202800022428082800A68B4
:109D000082604A68C26089680161684600F044F96F
:109D100008BD0E2008BD1CB5002831D000292FD069
:109D20000288112A2DD0362A14D0392A28D10A4681
:109D30000B8881888B4223D143899488A3421FD109
:109D4000C389012B1CD1ADF8021001218DF8001040
:109D5000007C0FE00A460B8881888B4210D130F8D6
:109D60000A3F9488A3420BD1ADF8021002218DF86E
:109D7000001080798DF80400936869461046984772
:109D80001CBD0A8880888242FAD14FF6FF70088095
:109D90000020488088801CBD7CB50A78002A38D114
:109DA0008A88A2F5C0530F3B33D18A79012A30D17A
:109DB00000228DF800204A88ADF80220002242F6E9
:109DC00019240B7A14E000BF02EBC20501EB450534
:109DD000ED89A5420AD102EBC20201EB42010A8BD6
:109DE000ADF80420C98AADF8061003E0521CD2B2C7
:109DF0009342E9D80188A1F57F42FF3A06D0418815
:109E000021B9818811B90199C0F8021082686946A8
:109E100090477CBD054808B5C168009181686846D7
:109E200004F070FD0098FFF7FDFA08BD88360020A9
:109E300010B5044600F0A6F8002805D02146BDE87C
:109E40001040024804F03ABD10BD000098360020D2
:109E500070B515460E4604460CF074F8002809D07B
:109E6000054800EB8400C0692A463146BDE87040D1
:109E700002F0A6B870BD00008836002010B5044678
:109E800000F080F8002805D02146BDE810400248C7
:109E900004F014BD10BD0000A036002010B504462B
:109EA00000F070F8002805D02146BDE810400248B7
:109EB00004F004BD10BD00009C36002070B50546BE
:109EC000002400F05FF838B12946044804F0F6FC9D
:109ED00008B1022400E00124204670BD9436002021
:109EE00070B50546002400F04DF838B12946044805
:109EF00004F0E4FC08B1022400E00124204670BD17
:109F00009036002010B51821034804F0B2FC182840
:109F100000D0C0B210BD00008836002070B50546E4
:109F20000C4608460CF00EF860B1284600F02AF8FE
:109F300040B10548294600EB8400BDE870401C3064
:109F400004F0BCBC002070BD8836002070B505460A
:109F500016460C4608460BF0F5FF00280ED02846A2
:109F600000F010F8002809D00548324600EB8400C4
:109F70002946BDE870401C3002F004B870BD0000F6
:109F800088360020142801D300207047014601487C
:109F900004F094BC8C36002070B540B10C4D29788B
:109FA00039B104460AF068FB28B1002070BD0E20CC
:109FB00070BD082070BDE868062807D205492268F0
:109FC00001EB8001401C0A60E860EEE7042070BDF0
:109FD000343100200437002010B558B103684BB16C
:109FE00042683AB1044900200124C8600C70C1E9FC
:109FF000013210BD0E2010BD34310020002827D0C2
:10A00000002925D0134A1278002A21D00A46018857
:10A01000112911D0302907D0322909D0332917D17D
:10A02000011D104608F014B8011D104608F08EB945
:10A03000011D104607F01CBF8088B2F8CA12884282
:10A0400006D1002082F8C8024FF6FF70A2F8CA02BB
:10A05000704700003431002048B1084A137843B1FA
:10A06000D26832B190F8C8222AB1112070470E2070
:10A0700070470820704701F029BA000034310020F1
:10A080003EB50446011D02883B483C4BC01AC0083F
:10A09000032303EB0040192A5DD00ADCA2F1100271
:10A0A000092A46D2DFE802F0183145454545454FBB
:10A0B0005100212A34D007DC1B2A2CD01F2A38D18A
:10A0C00031F8040B75DF38E03B2A33D0562A30D103
:10A0D000A088132176DF30E029A106F0C5FCA18815
:10A0E0002A48FFF7B9FF08B1FFF7B0FA5FF00700A1
:10A0F00000F02CFC08B1FFF7A9FAFFF78BFE00284F
:10A1000017D1BDE83E400AF0EFBC0A7920A106F065
:10A11000AFFC0020ECE7097902290AD123A115E060
:10A1200000200090A08869468FDF002801D0FFF74B
:10A130008DFA3EBDA088132176DF0028F9D0BDE856
:10A140003E40FFF783BA21A100E028A103B0BDE89B
:10A15000304006F089BCA37A617B227BC3F3C00345
:10A160000093CDE90121617A227AC1F38003274966
:10A1700006F0A0FC3EBD0000A0B20300B0B1030099
:10A18000436F6E6E65637465642E0000382B00208B
:10A19000446973636F6E6E65637465642C207265C9
:10A1A00061736F6E20307825782E0000436F6E6EDD
:10A1B000656374696F6E2052657175657374207480
:10A1C000696D6564206F75742E000000424C455F18
:10A1D0004741505F4556545F415554485F4B455980
:10A1E0005F5245515545535400000000424C455FB5
:10A1F0004741505F4556545F4C4553435F44484B7D
:10A2000045595F524551554553540000EC8D0300AC
:10A2100010B51A4C0188606810290ED011292BD175
:10A22000401E606028D1FFF730F9002824D0216853
:10A23000002921D0BDE810400847D0B900210122F3
:10A24000084600F061FB08B107280FD10722022160
:10A25000012000F059FB08B1072807D10422022190
:10A26000002000F051FB20B1072802D0216801B185
:10A2700088476068401C606010BD00002C310020E1
:10A280002DE9F04F044686880188424897B08346FE
:10A2900010290CD0112950D0103019296AD01A2950
:10A2A00074D1217A0C09042C4DD301224CE0394D94
:10A2B000083DA868C0430B9069680BA804F022FB16
:10A2C0000B990CA800F083FE2C220CA96846FCF721
:10A2D00039FF0027E946A84610E000BF09EB470018
:10A2E0005FF00005B0F804A008EB85005146001DA2
:10A2F00004F0A4FA6D1C1E2DF6D37F1C0098B84202
:10A30000ECD8142E05D317B00420BDE8F04FFFF7AA
:10A310009DB93146584604F0DCFA314608F1040094
:10A3200004F0D7FAE07B022830D117B03146BDE8FF
:10A33000F04F1848001D04F0CCBA17B03146BDE804
:10A34000F04F04F07BBA0022314601F01BFE032CD3
:10A3500001D3012200E000220E4831460C3001F00A
:10A3600011FE022C01D3012200E0002209483146EF
:10A37000083006E0217A002908D1617AC1F3C002D1
:10A38000314617B0BDE8F04F01F0FCBD17B0BDE895
:10A39000F08F00009036002010B504460748007882
:10A3A00000280AD0204602F0F9FB20460AF0B0FF50
:10A3B0002046BDE8104001F0B1BF10BD883100203B
:10A3C00038B1018012B11268C0F80220006904F0AF
:10A3D000D3BB0E207047000030B589B000B30446EF
:10A3E00001258DF8205000208DF82100202168469D
:10A3F000FCF7C3FE0B48CDE902048DF800506088DD
:10A40000ADF812000220ADF8160008A806908DF8ED
:10A41000105022886946206904F0E6FB09B030BD7F
:10A420000E20FBE701C0020008B5B8B1B1B10122AE
:10A430008DF8022041F60D02ADF800200A68826016
:10A440004A68C260896801614FF6FF71018000218E
:10A45000418081806846FFF79FFD08BD0E2008BD42
:10A460000A460146100012D0002910D00A88112A8D
:10A4700003D0392A0BD107F02FBF028889888A427E
:10A4800005D14FF6FF710180002141808180704726
:10A4900030B50A788DB0002A36D18A88A2F5C0532B
:10A4A0000D3B31D18A79012A2ED18DF800204A88BE
:10A4B000ADF80220002242F637240B7A13E000BFE9
:10A4C00002EBC20501EB4505ED89A5420AD102EB7D
:10A4D000C20201EB42010A8BADF80420C98AADF833
:10A4E000061002E0521C9342EAD80188A1F57F428F
:10A4F000FF3A06D0418821B9818811B90199C0F885
:10A5000002108268694690470DB030BD2DE9F04FCA
:10A51000ADF53F7D14460E468346B2F5C07F05D9A2
:10A520006FF037000DF53F7DBDE8F08F4FF4D0712F
:10A530006846FCF722FE68A803F01DFA200E8DF88D
:10A540001000200C8DF81100200A8DF81200202038
:10A550008DF8170006AD8DF8134022463146284687
:10A56000FCF7F0FD8020285504F119080020BAA955
:10A570000854401C1028FBDB802268A803F000FA76
:10A58000070051D10025AA466E46CDF8B8A2CDF8F5
:10A59000BCA2CDF8C0A244460DF52E79CDF8C4A2D8
:10A5A00017E000204946335C0A5C5A400A54401CBC
:10A5B0001028F8DB1036102C01D3102000E02046C4
:10A5C000241AAEAB1A46012168A803F0C1F90700AE
:10A5D0002AD1002CE5D1B2A828441022AEA9FCF75C
:10A5E000B1FD9DF803001035401C8DF80300202DAF
:10A5F000CADB8022B2A968A803F0C2F9070013D110
:10A60000B6AE5C46002533461A46012168A803F021
:10A610009FF9070008D1102231462046FCF792FD31
:10A6200010341035202DEEDB68A803F09DF94FF4AF
:10A63000D071684604F01AF82021B2A804F016F888
:10A640001021BAA804F012F81021AEA804F00EF8F8
:10A650001FB12021584604F009F8384662E700008F
:10A660000149085C70470000EA6403000649095C80
:10A670004FF0A040D0F81005C84010F0010000D005
:10A68000012080F001007047EA6403002DE9FC41DD
:10A690000646C0074FF000050ED0104F00240122DF
:10A6A000385D009500231146019505F009FF641CF3
:10A6B000042CF4D300F046F8B0070DD5074E002463
:10A6C000361D0022305D032300951146019505F0EB
:10A6D000F7FE641C042CF4D3BDE8FC81E66403009F
:10A6E00007490B5C4FF0A041D1F8042501209840A8
:10A6F00020EA0203C1F808351040C1F80C05704784
:10A70000E66403000249085C012105F090BF0000E7
:10A71000E66403000249085C002105F088BF0000E0
:10A72000E66403000649095C4FF0A040D0F8040538
:10A73000C84010F0010000D0012080F001007047F7
:10A74000E664030010B500242046FFF7DBFF641C1D
:10A75000042CF9D310BD10B500242046FFF7DAFF12
:10A76000641C042CF9D310BD10B50246064B4FF003
:10A77000FF3000215C5C944201D1084610BD491CA9
:10A780000429F7D310BD0000EA64030070B50C4E35
:10A790000C004FF0000530600BD0012000F06AF88B
:10A7A00008B1022004E0002000F064F800B10B20A2
:10A7B0002070706810B9FEF768FE0546284670BD27
:10A7C0002C31002010B5002000F0FAF908B106285D
:10A7D00006D1012000F0F4F908B1062800D10020CC
:10A7E00010BD00002DE9F0470D468146FFF7BCFF84
:10A7F0000446042836D2DFF874801B481C4EA8F1AA
:10A800000C0725B3012D0ED0022D2BD104EB4400F3
:10A8100030444578002D25D0B968002922D028463B
:10A82000BDE8F047084704EB4401755C0E447178BD
:10A8300049B10E4A4FF48041093A8068FEF752FF51
:10A8400008B987F80390B17808F80410E2E7806847
:10A85000FEF760FF04EB4401314418F804008D78E2
:10A86000A842D7D0BDE8F087F0640300283100206B
:10A8700058360020042801D2FFF7F8BE00207047A8
:10A8800010B5164C042808D0072811D00A2824D166
:10A89000BDE81040002006F0B3BA1321A08876DF8F
:10A8A00008281AD0002818D0BDE81040FEF7CEBE08
:10A8B0006078002811D10A480A49401AC0080321CB
:10A8C00001EB004008A106F0CFF80120607004F011
:10A8D00063FEBDE810400AF007B910BD1C2B002034
:10A8E000A0B20300B0B1030057686974656C697366
:10A8F000742074656D706F726172696C792064691F
:10A900007361626C65642E0070B50023042810D258
:10A910000D4D00EB4004012A02D101290CD0002288
:10A92000094E00EB4000304461B1012906D00229F4
:10A9300006D00723184670BD0E30C2B22A55F9E77B
:10A940004270F7E78270F5E758360020044A014666
:10A9500000201279D20702D0084600F04DB87047A7
:10A960001C31002070B506461E480024C0E9016174
:10A97000B00720D50025012211462846FFF7C4FF65
:10A980006D1C0446042D02D2002CF4D013E094B9BF
:10A9900040F2333204211448FEF7D6FD04000AD1F8
:10A9A000FEF7C0FD040006D10F48104A0021001F29
:10A9B000FEF75EFE0446F00712D00120FFF766FEA8
:10A9C00074B909480A4A00210C38FEF751FE040008
:10A9D00006D10548074A01210838FEF749FE04461A
:10A9E000204670BD1C310020FC640300CDAC020089
:10A9F00025D30200139502002DE9F05F6E4C054649
:10AA000000266078B34618B184F801B002F072FCF9
:10AA10006A4F4FF47A694FF4C87A4FF00108182D45
:10AA200069D2DFE805F00C1313384754696E727B66
:10AA3000727BC58484848484B3B6B9BCC5C502F076
:10AA400059FC3868FEF766FE06465CE00020FFF71A
:10AA500069FE00284FF0000008D0FFF753FE022DDA
:10AA600002D14FF4E16008E0484606E0FFF752FEED
:10AA7000022D01D1C82000E05046410CC0034FF424
:10AA80007A72801841F10001257052000023FCF712
:10AA900015FB01462AE00020FFF744FE00284FF096
:10AAA000000004D0FFF72EFE4FF44870E5E7FFF7F3
:10AAB00031FEDFE70020FFF735FE00284FF00000F1
:10AAC00002D0FFF71FFECFE7FFF724FED4E70020F8
:10AAD000FFF728FE00284FF0000002D0FFF712FE1B
:10AAE00001E0FFF717FE257040F6CD4100223868DF
:10AAF000FEF7F8FD064646E00020FFF7F1FD257061
:10AB000008E0002051E025703DE084F8018001203C
:10AB1000FFF7E6FD002240F26661E8E784F8018075
:10AB20000120FFF7DDFD00224FF40051DFE77868D8
:10AB3000FEF7F0FD0646D5F1110000D02EB102203F
:10AB4000FFF7E0FD84F802B01DE0012816D980B2BD
:10AB5000C8214843C117C90341EA5041C0034FF41B
:10AB60007A72801841F1000152000023FCF7A6FA26
:10AB7000014600227868FEF7B5FD06460220FFF781
:10AB8000C9FD84F802803046BDE8F09F02F0B2FBB8
:10AB9000B9E702F0AFFBB4E702F0ACFB04E002F06F
:10ABA000A9FB0020FFF7B6FD0120FFF7B3FDAAE7E0
:10ABB000FFF7D1FDA7E700001C310020F06403007F
:10ABC00001210BF0D5B900002DE9F84F0546861C90
:10ABD00000208DF8000091460F464FF0010A6846AC
:10ABE000FEF79EFD1B4C04F21C4860683860D4E9F7
:10ABF0000101194F401A3968081A0EE00121404638
:10AC000003F07AFE02F0A2FD0146404603F074FE16
:10AC1000D4E90101401A3968081A401C8642EDD86F
:10AC2000B9F1000F03D0052065F3891002E006207A
:10AC300065F39F5061683A68114004EB8101C86078
:10AC40006068304460609DF80000FEF78DFD50465E
:10AC5000BDE8F88FA0410020F032002070B50D460D
:10AC600004460A2902D10D21FFF7F8FFA0682268E7
:10AC7000411CA1601554D4E90101814204D320464E
:10AC8000BDE8704005F0B9B870BD000004488168A7
:10AC90004068814201D101207047002070470000C8
:10ACA000A0410020034630B50748002104784268DF
:10ACB00006E000BF02EBC10005789D4203D0491CAD
:10ACC000A142F7DB002030BD48320020007802218D
:10ACD000FFF788BD1CB5044602F0FAF800236A4667
:10ACE000092107F079FF052805D1034801224179A0
:10ACF0002046FFF72BF91CBD443100201CB504464B
:10AD00000020009042F6A620ADF8000001208DF84A
:10AD10000200084801AA6946006801902046A0DFA9
:10AD2000002805D10448012281792046FFF70EF959
:10AD30001CBD0000986503004431002005494FF018
:10AD4000FF32082841F8202002D3084480F8482028
:10AD5000704700000C3D0020F0B54FF0FF3512B1F8
:10AD60000023082601E008230C260C4C05E000BF58
:10AD700054F823707F1C04D05B1CB342F8D32846E0
:10AD8000F0BD26185DB286F8305044F82310002A32
:10AD9000F5D1E11881F84800F1E700000C3D0020F2
:10ADA0000249084490F93000704700000C3D002033
:10ADB00030B589B00D46044620216846FCF7DDF920
:10ADC00094F8C602002300EB8001C1EB801094F8D8
:10ADD000C51204EB400041B1491EC9B201EBC101EB
:10ADE00000EB4101498A491C00E0C188008961F3F8
:10ADF0000F0360F31F4303208DF800000548CDE9E1
:10AE00000204054804932A466946806803F0ECFE74
:10AE100009B030BD7DB402003431002070B5044665
:10AE20004FF6FF750A462846AC4209D14FF48074AC
:10AE30002146104603F01DFD80B2A0420BD070BD2C
:10AE4000FF2CFCD82146104603F003FD90F0010FC3
:10AE500001D0204670BD284670BD000070B5084C7A
:10AE6000050009D010342168002907D00868206047
:10AE7000496828468847F6E70834F4E770BD0000C3
:10AE8000A83C0020054A012120B1012805D191707C
:10AE9000FFF7E4BF51700020FAE77047A83C00209C
:10AEA00010B5D0E90234D1E90220D11AA04101D372
:10AEB000012010BD002010BD7CB50E46202101915F
:10AEC0001C491B4C4978002929D01B491B4A90F882
:10AED0004930891ACD085BB1024601A91548009195
:10AEE000234604F12001001D04F0D0FC002818D0F6
:10AEF000022000EB054012A105F0B6FD20212046FE
:10AF000004F06AFE002809D1032000EB0540324618
:10AF100018A105F0ADFD0649304681DF7CBD032058
:10AF20007CBD224620231146204804F0FBFBE9E7C4
:10AF30003438002064310020E0B10300B0B10300D8
:10AF40004372656174696E6720696E76616C6964CD
:10AF50002073686172656420736563726574207420
:10AF60006F206D616B65204C455343206661696CB1
:10AF70002E00000043616C6C696E672073645F6231
:10AF80006C655F6761705F6C6573635F64686B6558
:10AF9000795F7265706C79206F6E20636F6E6E5F83
:10AFA00068616E646C653A2025640000C867030020
:10AFB00010B502460020138806E0546834F81040AB
:10AFC0008C4203D0401C80B28342F6D810BD73B5CA
:10AFD0008CB00646002000900D9880B100246D468C
:10AFE00021460DA803F06AFC30B1009805EB400043
:10AFF00084800098401C0090641C142CF0D32C22F8
:10B0000069463046FCF79EF80EB070BDF0B585B0CD
:10B0100016460F4604461D4614220B496846FCF7A7
:10B0200091F80A488DF80870ADF80240ADF80A6052
:10B030008DF80C50017800222046FEF787FF684605
:10B0400000F06CFD05B0F0BDFC660300F831002097
:10B05000FEF74AB902681368526831B19A4202D3C6
:10B060008068801A07E0981A70479A4201D3D01A74
:10B0700070478068C01A401C70472DE9F04389B0C2
:10B08000884604466E4620213046FCF776F80025B7
:10B0900004F120091020211811F8012D521C12F082
:10B0A000FF020A7002D1401E0028F4DC334622461B
:10B0B0000121484602F04CFC070017D1103510362C
:10B0C000202DE7DB694618F800200B5C53400B5439
:10B0D000401C2028F7DB8022484602F051FC070084
:10B0E00004D104AD95E80F0084E80F0020216846E4
:10B0F00003F0BCFA09B03846BDE8F08370B588B0FB
:10B100000646002005900690ADF81410ADF8161014
:10B110000190029001AA05A9304690DF050021D0D8
:10B1200006F01CFA0346114811493246401AC1087C
:10B13000012000EB014004460E4905F0A0FCBDF8DB
:10B14000042012B9BDF8060028B1BDF8063020462B
:10B1500009A105F094FCBDF808201AB12046164953
:10B1600005F086FC08B0284670BD0000D0B1030091
:10B17000B0B1030060930300546865207265717577
:10B1800065737465642054582F5258207061636B46
:10B190006574206C656E67746820697320746F6FC6
:10B1A000206C6F6E672062792025752F2575206FC2
:10B1B00063746574732E0000AC93030010B50446ED
:10B1C00001460548FFF764F921460348BDE81040F1
:10B1D0001430FEF7E1BD00005C35002070B5044678
:10B1E0000948012103F0A3FBBFF35F8F002500286E
:10B1F00008D1204602F024FA002803D1BFF35F8F64
:10B200000148056070BD0000503100202DE9FF416C
:10B210000C4620B14FF4064004B0BDE8F08120791F
:10B22000002748F2096538B141F61D5601281BD0A8
:10B23000022826D0681DEFE70220207102970397AD
:10B24000E0680190694601A809F036F950B102980A
:10B250008188E18000882081BDF80010029809F003
:10B26000A9F9D9E72846D7E70A4B6A460021A01D6D
:10B2700009F0DAF838B1074918398F61CF61A8426F
:10B28000CAD13046C8E703488188019809F092F98D
:10B29000F5E70000A83200202DE9F04389B00F4601
:10B2A0000546914620216846FBF767FF95F8C602E0
:10B2B00095F8C54200EB8001C1EB801005EB40061C
:10B2C00004EBC40006EB40013279601C0A31904265
:10B2D00032D108AB0022284601F0B8FF78B310E065
:10B2E000401EA04201D1002004E004EBC40006EBA4
:10B2F00040001C308046024608AB284601F0A6FFFD
:10B3000090B10020387004208DF8000008984A465B
:10B31000CDE903500C4802900C486946806803F060
:10B3200063FC09B0BDE8F08395F8C5024146401CB6
:10B33000641C85F8C502E4B23079A042D0D801205F
:10B3400038700020EDE700007DB4020034310020A9
:10B3500070B500240F4D10E0686800EBC40630782B
:10B3600006F026FA7178012901D0012100E00021C0
:10B370004140307800F026FB641C28788442EBDBE7
:10B38000D5E90401084303D0BDE870400AF0A4BB2E
:10B3900070BD00004832002030B59FB00C46054615
:10B3A0007C216846FBF7E9FEADF8024003208DF8EA
:10B3B0000000044801954168002901D0684688478B
:10B3C0001FB030BD343100202DE9F041044690F823
:10B3D000C602884600EB8001C1EB801004EB4006FA
:10B3E0001746304609F048F9050042D0D4F8CC029F
:10B3F00006283ED204EBC0107622A0F8D272D4F810
:10B40000CC02314604EBC01000F53570FBF79AFE14
:10B410000026B8F1000F06D0D4F8CC0204EBC0101F
:10B4200080F8D06206E0D4F8CC12022004EBC111FF
:10B4300081F8D002D4F8CC0204EBC010C0F84C5311
:10B44000D4F8CC020C4D401CC4F8CC02E968884208
:10B450000FD12746002407E007EBC41101F5347033
:10B46000D1F84C138847641CE8688442F4D3C7F8C9
:10B47000CC62BDE8F081000034310020F0B5154603
:10B480009FB0002281F8C822074691F8C6020C46F8
:10B4900000EB8002C2EB801001EB400009F0ECF8F9
:10B4A000060009D07C2208496846FBF74BFEADF840
:10B4B000025068460197B0471FB029462046BDE8B4
:10B4C000F040FFF769BF00001C650300F0B50D46B2
:10B4D00089B004464FF4BA61FBF74FFE202168465D
:10B4E000FBF74BFE154E2946B06803F045FB0028DC
:10B4F00021D1A4F8CA52C4F8CC0284F8C70284F857
:10B50000C60284F8C5020E4801272A46006820605A
:10B5100002208DF80000ADF810702068CDF8120000
:10B520000848CDE902046946B06803F05DFB0028D5
:10B5300001D184F8C87209B0F0BD00003431002098
:10B54000043700207DB4020010B50021024803F04A
:10B55000EEF980F3100010BDBC4500204FF480329E
:10B560008A400168C1F848230068C0F80823704782
:10B570004FF4A07202EB810189B200F093BA2DE979
:10B58000F04105460E464FF4A07000EB860081B2F4
:10B5900028684FF48034B440984622F07F47C0F8C2
:10B5A00008432868C0F84843286805F044FD286827
:10B5B00000EB8600C0F840752868C0F84443B8F135
:10B5C000000F02D02868C0F80443BDE8F08100688D
:10B5D000D0F804057047000070B54379234C44F857
:10B5E00023204279231D03EBC202224C1579204A05
:10B5F000121BD4082DB10825022000EB04401EA127
:10B6000030E005680A88C5F8082590F90420897893
:10B61000002A4FEA411104DB02F1E02282F8001413
:10B6200005E002F00F0202F1E02282F8141D90F909
:10B6300004100122002909DB01F01F0502FA05F5BB
:10B640004909890001F1E021C1F800514179002543
:10B6500003EBC1010A71417943F83100032000EB8B
:10B6600004400EA105F000FA284670BD8432002087
:10B6700078B20300B0B1030052544320696E737472
:10B68000616E636520616C726561647920696E69C1
:10B690007469616C697A65642E0000005254433A03
:10B6A00020696E697469616C697A65642E000000B6
:10B6B00090F90400002809DB00F01F0201219140ED
:10B6C0004009800000F1E020C0F8001270470A46EF
:10B6D000022100F06DB94FF4827100F0E3B9006807
:10B6E00001210160704700680121416070472DE928
:10B6F000F05F07460C464FF4A07000EB84001FFA81
:10B7000080FA38684FF48036A6409B4622F07F4589
:10B71000C0F848633868C0F808633868D0F8048512
:10B7200000EB8402D2F84095C2F840855146386853
:10B7300005F081FCA9EB080020F07F40012806D12C
:10B74000102005F077FF5146386805F074FC386822
:10B75000D0F80485C0F84463A5EB080121F07F41CF
:10B760003868012900EB840010D0C0F840553868D3
:10B77000D0F804156FF07F4C6A1A521E22F07F42F7
:10B78000ACEB0B03934217D362B118E06D1CC0F809
:10B790004055102005F04EFF3868D0F804054045AC
:10B7A0000AD10CE000EB84006D1CC0F840553868ED
:10B7B000D0F80405884202D00D20BDE8F09F012298
:10B7C0003146384600F0F4F80020F6E713460A4602
:10B7D0000021FFF71BBC10B50846114604F040FAE3
:10B7E000002010BD2DE9F843104D0F4680461E463F
:10B7F00091466946286802F0F5FF040014D01C2128
:10B80000FBF7BBFC01202071C4F81490380BC4F87E
:10B810000080C4E902606946286803F004F808F073
:10B8200035FD0020BDE8F8830420FBE7D068030065
:10B8300010B503780022072B06D2DFE803F00504D9
:10B840000610202930000A7010BD01230B700389F7
:10B850008B818388CB81C06888600A7410BD022206
:10B860000A7002898A818288CA81C2688A60807D62
:10B87000062802D00020087410BD0120FBE7032237
:10B880000A70C2888A810289CA81C068886010BD36
:10B8900004230B70C0888881CA818A6010BD05208E
:10B8A000087010BD70B5064D0646002455F82410EA
:10B8B00009B130468847641C042CF7D370BD0000E2
:10B8C000783E002030B50446006887B00D46806899
:10B8D00000281FD018216846FBF74FFC0195A0688F
:10B8E0000590207910B1012810D107E001208DF8D2
:10B8F000000020690290E068039005E002208DF8C6
:10B900000000E0680003029060690490206881688C
:10B910006846884707B030BDF0B585B017460C00C3
:10B9200005463AD0112C38D0082C36D01C481D4979
:10B93000401AC6080D2C11D0204605F00FFE024615
:10B94000012000EB06402B46174905F098F82A46DF
:10B950000721684602F0FAFE02941BE0022000EB89
:10B9600006402A46114905F083F82A460321684615
:10B9700002F0ECFE27B13878C00701D0012000E0CA
:10B9800002208DF8080000208DF80C0041F2011013
:10B99000ADF80A00684600F0CFF805B0F0BD000031
:10B9A00018B20300B0B10300B49E0300A49D0300CD
:10B9B0000368C3F84413002A02D00068C0F80413D7
:10B9C000704700002DE9F84F0E463449804601EBE0
:10B9D0005001C007097801D00F0901E001F00F07FD
:10B9E0004FF00009424601204946FBF798FBDFF87B
:10B9F000B0A004460D46052F4ED2DFE807F003162F
:10BA00001B282C00002E47D00121404609F048FF9A
:10BA10008DF800906846FDF783FE5046D0E9041289
:10BA20000C431543CAE9044532E00EB1022114E08B
:10BA3000002112E04EB10321404609F031FF40469B
:10BA4000BDE8F84F01210AF083BA012105E0002E7C
:10BA500022D1042101E02EB103214046BDE8F84F78
:10BA600009F01EBF0021404609F01AFF00214046A0
:10BA70000AF06EFA8DF800906846FDF751FE5046C8
:10BA8000E243D0E904341A4024EA0501CAE904215A
:10BA90009DF80000FDF768FEBDE8F88FD83D002056
:10BAA0004832002010B5006842581AB105F0C3FAB8
:10BAB000012010BD002010BD10B50446408801F0E3
:10BAC00007FAA080024801682046BDE810400847F8
:10BAD0004C31002010B50446808801F0CDF860801C
